{
  "address": "0xD42912755319665397FF090fBB63B1a31aE87Cee",
  "abi": [
    {
      "inputs": [],
      "stateMutability": "nonpayable",
      "type": "constructor"
    },
    {
      "anonymous": false,
      "inputs": [
        {
          "indexed": true,
          "internalType": "address",
          "name": "receptor",
          "type": "address"
        },
        {
          "indexed": false,
          "internalType": "uint256",
          "name": "amount",
          "type": "uint256"
        }
      ],
      "name": "FundsSent",
      "type": "event"
    },
    {
      "anonymous": false,
      "inputs": [
        {
          "indexed": false,
          "internalType": "uint256",
          "name": "amount",
          "type": "uint256"
        },
        {
          "indexed": true,
          "internalType": "address",
          "name": "receptor",
          "type": "address"
        },
        {
          "indexed": false,
          "internalType": "uint256",
          "name": "gas",
          "type": "uint256"
        }
      ],
      "name": "MaticWithdrawn",
      "type": "event"
    },
    {
      "anonymous": false,
      "inputs": [
        {
          "indexed": true,
          "internalType": "address",
          "name": "previousOwner",
          "type": "address"
        },
        {
          "indexed": true,
          "internalType": "address",
          "name": "newOwner",
          "type": "address"
        }
      ],
      "name": "OwnershipTransferred",
      "type": "event"
    },
    {
      "anonymous": false,
      "inputs": [
        {
          "indexed": true,
          "internalType": "bytes32",
          "name": "role",
          "type": "bytes32"
        },
        {
          "indexed": true,
          "internalType": "bytes32",
          "name": "previousAdminRole",
          "type": "bytes32"
        },
        {
          "indexed": true,
          "internalType": "bytes32",
          "name": "newAdminRole",
          "type": "bytes32"
        }
      ],
      "name": "RoleAdminChanged",
      "type": "event"
    },
    {
      "anonymous": false,
      "inputs": [
        {
          "indexed": true,
          "internalType": "bytes32",
          "name": "role",
          "type": "bytes32"
        },
        {
          "indexed": true,
          "internalType": "address",
          "name": "account",
          "type": "address"
        },
        {
          "indexed": true,
          "internalType": "address",
          "name": "sender",
          "type": "address"
        }
      ],
      "name": "RoleGranted",
      "type": "event"
    },
    {
      "anonymous": false,
      "inputs": [
        {
          "indexed": true,
          "internalType": "bytes32",
          "name": "role",
          "type": "bytes32"
        },
        {
          "indexed": true,
          "internalType": "address",
          "name": "account",
          "type": "address"
        },
        {
          "indexed": true,
          "internalType": "address",
          "name": "sender",
          "type": "address"
        }
      ],
      "name": "RoleRevoked",
      "type": "event"
    },
    {
      "inputs": [],
      "name": "DEFAULT_ADMIN_ROLE",
      "outputs": [
        {
          "internalType": "bytes32",
          "name": "",
          "type": "bytes32"
        }
      ],
      "stateMutability": "view",
      "type": "function"
    },
    {
      "inputs": [],
      "name": "GAME_ROLE",
      "outputs": [
        {
          "internalType": "bytes32",
          "name": "",
          "type": "bytes32"
        }
      ],
      "stateMutability": "view",
      "type": "function"
    },
    {
      "inputs": [
        {
          "internalType": "bytes32",
          "name": "role",
          "type": "bytes32"
        }
      ],
      "name": "getRoleAdmin",
      "outputs": [
        {
          "internalType": "bytes32",
          "name": "",
          "type": "bytes32"
        }
      ],
      "stateMutability": "view",
      "type": "function"
    },
    {
      "inputs": [
        {
          "internalType": "bytes32",
          "name": "role",
          "type": "bytes32"
        },
        {
          "internalType": "uint256",
          "name": "index",
          "type": "uint256"
        }
      ],
      "name": "getRoleMember",
      "outputs": [
        {
          "internalType": "address",
          "name": "",
          "type": "address"
        }
      ],
      "stateMutability": "view",
      "type": "function"
    },
    {
      "inputs": [
        {
          "internalType": "bytes32",
          "name": "role",
          "type": "bytes32"
        }
      ],
      "name": "getRoleMemberCount",
      "outputs": [
        {
          "internalType": "uint256",
          "name": "",
          "type": "uint256"
        }
      ],
      "stateMutability": "view",
      "type": "function"
    },
    {
      "inputs": [
        {
          "internalType": "bytes32",
          "name": "role",
          "type": "bytes32"
        },
        {
          "internalType": "address",
          "name": "account",
          "type": "address"
        }
      ],
      "name": "grantRole",
      "outputs": [],
      "stateMutability": "nonpayable",
      "type": "function"
    },
    {
      "inputs": [
        {
          "internalType": "bytes32",
          "name": "role",
          "type": "bytes32"
        },
        {
          "internalType": "address",
          "name": "account",
          "type": "address"
        }
      ],
      "name": "hasRole",
      "outputs": [
        {
          "internalType": "bool",
          "name": "",
          "type": "bool"
        }
      ],
      "stateMutability": "view",
      "type": "function"
    },
    {
      "inputs": [],
      "name": "owner",
      "outputs": [
        {
          "internalType": "address",
          "name": "",
          "type": "address"
        }
      ],
      "stateMutability": "view",
      "type": "function"
    },
    {
      "inputs": [],
      "name": "renounceOwnership",
      "outputs": [],
      "stateMutability": "nonpayable",
      "type": "function"
    },
    {
      "inputs": [
        {
          "internalType": "bytes32",
          "name": "role",
          "type": "bytes32"
        },
        {
          "internalType": "address",
          "name": "account",
          "type": "address"
        }
      ],
      "name": "renounceRole",
      "outputs": [],
      "stateMutability": "nonpayable",
      "type": "function"
    },
    {
      "inputs": [
        {
          "internalType": "bytes32",
          "name": "role",
          "type": "bytes32"
        },
        {
          "internalType": "address",
          "name": "account",
          "type": "address"
        }
      ],
      "name": "revokeRole",
      "outputs": [],
      "stateMutability": "nonpayable",
      "type": "function"
    },
    {
      "inputs": [
        {
          "internalType": "bytes4",
          "name": "interfaceId",
          "type": "bytes4"
        }
      ],
      "name": "supportsInterface",
      "outputs": [
        {
          "internalType": "bool",
          "name": "",
          "type": "bool"
        }
      ],
      "stateMutability": "view",
      "type": "function"
    },
    {
      "inputs": [
        {
          "internalType": "address",
          "name": "newOwner",
          "type": "address"
        }
      ],
      "name": "transferOwnership",
      "outputs": [],
      "stateMutability": "nonpayable",
      "type": "function"
    },
    {
      "inputs": [
        {
          "internalType": "address",
          "name": "receptor",
          "type": "address"
        },
        {
          "internalType": "uint256",
          "name": "_amount",
          "type": "uint256"
        },
        {
          "internalType": "address",
          "name": "token",
          "type": "address"
        }
      ],
      "name": "transferPayout",
      "outputs": [],
      "stateMutability": "nonpayable",
      "type": "function"
    },
    {
      "inputs": [
        {
          "internalType": "uint256",
          "name": "_amount",
          "type": "uint256"
        },
        {
          "internalType": "address",
          "name": "receptor",
          "type": "address"
        },
        {
          "internalType": "uint256",
          "name": "_gas",
          "type": "uint256"
        }
      ],
      "name": "withdrawMatic",
      "outputs": [],
      "stateMutability": "nonpayable",
      "type": "function"
    },
    {
      "stateMutability": "payable",
      "type": "receive"
    }
  ],
  "transactionHash": "0x66b4ba1a5e25ba39ed35d297fb9b436797f03dd0d85a9db6d2aca6a420f29bae",
  "args": [],
  "numDeployments": 1,
  "solcInputHash": "d55d79d14bfe5f0021a09bf5df07e663",
  "bytecode": "0x60806040523480156200001157600080fd5b506200001d3362000034565b600180556200002e60003362000084565b620001d5565b600080546001600160a01b038381166001600160a01b0319831681178455604051919092169283917f8be0079c531659141344cd1fd0a4f28419497f9722a3daafe3b4186f6b6457e09190a35050565b62000090828262000094565b5050565b620000a08282620000bf565b6000828152600360205260409020620000ba908262000163565b505050565b60008281526002602090815260408083206001600160a01b038516845290915290205460ff16620000905760008281526002602090815260408083206001600160a01b03851684529091529020805460ff191660011790556200011f3390565b6001600160a01b0316816001600160a01b0316837f2f8788117e7eff1d82e926ec794901d17c78024a50270940304540a733656f0d60405160405180910390a45050565b60006200017a836001600160a01b03841662000183565b90505b92915050565b6000818152600183016020526040812054620001cc575081546001818101845560008481526020808220909301849055845484825282860190935260409020919091556200017d565b5060006200017d565b6112f080620001e56000396000f3fe6080604052600436106100ec5760003560e01c80638da5cb5b1161008a578063ab40070611610059578063ab40070614610289578063ca15c873146102bd578063d547741f146102dd578063f2fde38b146102fd57600080fd5b80638da5cb5b146102025780639010d07c1461023457806391d1485414610254578063a217fddf1461027457600080fd5b80632f2ff15d116100c65780632f2ff15d1461018d57806336568abe146101ad5780636c025ec2146101cd578063715018a6146101ed57600080fd5b806301ffc9a7146100f8578063192be4d51461012d578063248a9ca31461014f57600080fd5b366100f357005b600080fd5b34801561010457600080fd5b50610118610113366004610ff4565b61031d565b60405190151581526020015b60405180910390f35b34801561013957600080fd5b5061014d61014836600461103a565b610348565b005b34801561015b57600080fd5b5061017f61016a36600461106f565b60009081526002602052604090206001015490565b604051908152602001610124565b34801561019957600080fd5b5061014d6101a8366004611088565b61043b565b3480156101b957600080fd5b5061014d6101c8366004611088565b610465565b3480156101d957600080fd5b5061014d6101e83660046110b4565b6104e3565b3480156101f957600080fd5b5061014d610607565b34801561020e57600080fd5b506000546001600160a01b03165b6040516001600160a01b039091168152602001610124565b34801561024057600080fd5b5061021c61024f3660046110f0565b61061b565b34801561026057600080fd5b5061011861026f366004611088565b61063a565b34801561028057600080fd5b5061017f600081565b34801561029557600080fd5b5061017f7f6a64baf327d646d1bca72653e2a075d15fd6ac6d8cbd7f6ee03fc55875e0fa8881565b3480156102c957600080fd5b5061017f6102d836600461106f565b610665565b3480156102e957600080fd5b5061014d6102f8366004611088565b61067c565b34801561030957600080fd5b5061014d610318366004611112565b6106a1565b60006001600160e01b03198216635a05180f60e01b148061034257506103428261071a565b92915050565b61035061074f565b6000826001600160a01b03168285604051600060405180830381858888f193505050503d806000811461039f576040519150601f19603f3d011682016040523d82523d6000602084013e6103a4565b606091505b50509050806103f15760405162461bcd60e51b81526020600482015260146024820152734661696c656420746f2073656e64204d4154494360601b60448201526064015b60405180910390fd5b60408051858152602081018490526001600160a01b038516917fe63f8c69f119d38dd299f53067b72122f89c3cac1748da939809c5b50536e489910160405180910390a250505050565b600082815260026020526040902060010154610456816107a9565b61046083836107b3565b505050565b6001600160a01b03811633146104d55760405162461bcd60e51b815260206004820152602f60248201527f416363657373436f6e74726f6c3a2063616e206f6e6c792072656e6f756e636560448201526e103937b632b9903337b91039b2b63360891b60648201526084016103e8565b6104df82826107d5565b5050565b6104eb6107f7565b6105157f6a64baf327d646d1bca72653e2a075d15fd6ac6d8cbd7f6ee03fc55875e0fa883361063a565b6105575760405162461bcd60e51b81526020600482015260136024820152724d75737420686176652047414d4520726f6c6560681b60448201526064016103e8565b600082116105a75760405162461bcd60e51b815260206004820152601d60248201527f616d6f756e74206d7573742062652067726561746572207468616e203000000060448201526064016103e8565b6105bb6001600160a01b0382168484610850565b826001600160a01b03167f8c8f77105ce8ee99e391fd4da140bc14a988eb4cf878b240bfed9b10ae7c6758836040516105f691815260200190565b60405180910390a261046060018055565b61060f61074f565b61061960006108a2565b565b600082815260036020526040812061063390836108f2565b9392505050565b60009182526002602090815260408084206001600160a01b0393909316845291905290205460ff1690565b6000818152600360205260408120610342906108fe565b600082815260026020526040902060010154610697816107a9565b61046083836107d5565b6106a961074f565b6001600160a01b03811661070e5760405162461bcd60e51b815260206004820152602660248201527f4f776e61626c653a206e6577206f776e657220697320746865207a65726f206160448201526564647265737360d01b60648201526084016103e8565b610717816108a2565b50565b60006001600160e01b03198216637965db0b60e01b148061034257506301ffc9a760e01b6001600160e01b0319831614610342565b6000546001600160a01b031633146106195760405162461bcd60e51b815260206004820181905260248201527f4f776e61626c653a2063616c6c6572206973206e6f7420746865206f776e657260448201526064016103e8565b6107178133610908565b6107bd8282610961565b600082815260036020526040902061046090826109e7565b6107df82826109fc565b60008281526003602052604090206104609082610a63565b6002600154036108495760405162461bcd60e51b815260206004820152601f60248201527f5265656e7472616e637947756172643a207265656e7472616e742063616c6c0060448201526064016103e8565b6002600155565b604080516001600160a01b038416602482015260448082018490528251808303909101815260649091019091526020810180516001600160e01b031663a9059cbb60e01b179052610460908490610a78565b600080546001600160a01b038381166001600160a01b0319831681178455604051919092169283917f8be0079c531659141344cd1fd0a4f28419497f9722a3daafe3b4186f6b6457e09190a35050565b60006106338383610b4a565b6000610342825490565b610912828261063a565b6104df5761091f81610b74565b61092a836020610b86565b60405160200161093b929190611151565b60408051601f198184030181529082905262461bcd60e51b82526103e8916004016111c6565b61096b828261063a565b6104df5760008281526002602090815260408083206001600160a01b03851684529091529020805460ff191660011790556109a33390565b6001600160a01b0316816001600160a01b0316837f2f8788117e7eff1d82e926ec794901d17c78024a50270940304540a733656f0d60405160405180910390a45050565b6000610633836001600160a01b038416610d22565b610a06828261063a565b156104df5760008281526002602090815260408083206001600160a01b0385168085529252808320805460ff1916905551339285917ff6391f5c32d9c69d2a47ea670b442974b53935d1edc7fd64eb21e047a839171b9190a45050565b6000610633836001600160a01b038416610d71565b6000610acd826040518060400160405280602081526020017f5361666545524332303a206c6f772d6c6576656c2063616c6c206661696c6564815250856001600160a01b0316610e649092919063ffffffff16565b8051909150156104605780806020019051810190610aeb91906111f9565b6104605760405162461bcd60e51b815260206004820152602a60248201527f5361666545524332303a204552433230206f7065726174696f6e20646964206e6044820152691bdd081cdd58d8d9595960b21b60648201526084016103e8565b6000826000018281548110610b6157610b6161121b565b9060005260206000200154905092915050565b60606103426001600160a01b03831660145b60606000610b95836002611247565b610ba090600261125e565b67ffffffffffffffff811115610bb857610bb8611271565b6040519080825280601f01601f191660200182016040528015610be2576020820181803683370190505b509050600360fc1b81600081518110610bfd57610bfd61121b565b60200101906001600160f81b031916908160001a905350600f60fb1b81600181518110610c2c57610c2c61121b565b60200101906001600160f81b031916908160001a9053506000610c50846002611247565b610c5b90600161125e565b90505b6001811115610cd3576f181899199a1a9b1b9c1cb0b131b232b360811b85600f1660108110610c8f57610c8f61121b565b1a60f81b828281518110610ca557610ca561121b565b60200101906001600160f81b031916908160001a90535060049490941c93610ccc81611287565b9050610c5e565b5083156106335760405162461bcd60e51b815260206004820181905260248201527f537472696e67733a20686578206c656e67746820696e73756666696369656e7460448201526064016103e8565b6000818152600183016020526040812054610d6957508154600181810184556000848152602080822090930184905584548482528286019093526040902091909155610342565b506000610342565b60008181526001830160205260408120548015610e5a576000610d9560018361129e565b8554909150600090610da99060019061129e565b9050818114610e0e576000866000018281548110610dc957610dc961121b565b9060005260206000200154905080876000018481548110610dec57610dec61121b565b6000918252602080832090910192909255918252600188019052604090208390555b8554869080610e1f57610e1f6112b1565b600190038181906000526020600020016000905590558560010160008681526020019081526020016000206000905560019350505050610342565b6000915050610342565b6060610e738484600085610e7b565b949350505050565b606082471015610edc5760405162461bcd60e51b815260206004820152602660248201527f416464726573733a20696e73756666696369656e742062616c616e636520666f6044820152651c8818d85b1b60d21b60648201526084016103e8565b600080866001600160a01b03168587604051610ef891906112c7565b60006040518083038185875af1925050503d8060008114610f35576040519150601f19603f3d011682016040523d82523d6000602084013e610f3a565b606091505b5091509150610f4b87838387610f56565b979650505050505050565b60608315610fc5578251600003610fbe576001600160a01b0385163b610fbe5760405162461bcd60e51b815260206004820152601d60248201527f416464726573733a2063616c6c20746f206e6f6e2d636f6e747261637400000060448201526064016103e8565b5081610e73565b610e738383815115610fda5781518083602001fd5b8060405162461bcd60e51b81526004016103e891906111c6565b60006020828403121561100657600080fd5b81356001600160e01b03198116811461063357600080fd5b80356001600160a01b038116811461103557600080fd5b919050565b60008060006060848603121561104f57600080fd5b8335925061105f6020850161101e565b9150604084013590509250925092565b60006020828403121561108157600080fd5b5035919050565b6000806040838503121561109b57600080fd5b823591506110ab6020840161101e565b90509250929050565b6000806000606084860312156110c957600080fd5b6110d28461101e565b9250602084013591506110e76040850161101e565b90509250925092565b6000806040838503121561110357600080fd5b50508035926020909101359150565b60006020828403121561112457600080fd5b6106338261101e565b60005b83811015611148578181015183820152602001611130565b50506000910152565b7f416363657373436f6e74726f6c3a206163636f756e742000000000000000000081526000835161118981601785016020880161112d565b7001034b99036b4b9b9b4b733903937b6329607d1b60179184019182015283516111ba81602884016020880161112d565b01602801949350505050565b60208152600082518060208401526111e581604085016020870161112d565b601f01601f19169190910160400192915050565b60006020828403121561120b57600080fd5b8151801515811461063357600080fd5b634e487b7160e01b600052603260045260246000fd5b634e487b7160e01b600052601160045260246000fd5b808202811582820484141761034257610342611231565b8082018082111561034257610342611231565b634e487b7160e01b600052604160045260246000fd5b60008161129657611296611231565b506000190190565b8181038181111561034257610342611231565b634e487b7160e01b600052603160045260246000fd5b600082516112d981846020870161112d565b919091019291505056fea164736f6c6343000817000a",
  "devdoc": {
    "events": {
      "RoleAdminChanged(bytes32,bytes32,bytes32)": {
        "details": "Emitted when `newAdminRole` is set as ``role``'s admin role, replacing `previousAdminRole` `DEFAULT_ADMIN_ROLE` is the starting admin for all roles, despite {RoleAdminChanged} not being emitted signaling this. _Available since v3.1._"
      },
      "RoleGranted(bytes32,address,address)": {
        "details": "Emitted when `account` is granted `role`. `sender` is the account that originated the contract call, an admin role bearer except when using {AccessControl-_setupRole}."
      },
      "RoleRevoked(bytes32,address,address)": {
        "details": "Emitted when `account` is revoked `role`. `sender` is the account that originated the contract call:   - if using `revokeRole`, it is the admin role bearer   - if using `renounceRole`, it is the role bearer (i.e. `account`)"
      }
    },
    "kind": "dev",
    "methods": {
      "getRoleAdmin(bytes32)": {
        "details": "Returns the admin role that controls `role`. See {grantRole} and {revokeRole}. To change a role's admin, use {_setRoleAdmin}."
      },
      "getRoleMember(bytes32,uint256)": {
        "details": "Returns one of the accounts that have `role`. `index` must be a value between 0 and {getRoleMemberCount}, non-inclusive. Role bearers are not sorted in any particular way, and their ordering may change at any point. WARNING: When using {getRoleMember} and {getRoleMemberCount}, make sure you perform all queries on the same block. See the following https://forum.openzeppelin.com/t/iterating-over-elements-on-enumerableset-in-openzeppelin-contracts/2296[forum post] for more information."
      },
      "getRoleMemberCount(bytes32)": {
        "details": "Returns the number of accounts that have `role`. Can be used together with {getRoleMember} to enumerate all bearers of a role."
      },
      "grantRole(bytes32,address)": {
        "details": "Grants `role` to `account`. If `account` had not been already granted `role`, emits a {RoleGranted} event. Requirements: - the caller must have ``role``'s admin role. May emit a {RoleGranted} event."
      },
      "hasRole(bytes32,address)": {
        "details": "Returns `true` if `account` has been granted `role`."
      },
      "owner()": {
        "details": "Returns the address of the current owner."
      },
      "renounceOwnership()": {
        "details": "Leaves the contract without owner. It will not be possible to call `onlyOwner` functions anymore. Can only be called by the current owner. NOTE: Renouncing ownership will leave the contract without an owner, thereby removing any functionality that is only available to the owner."
      },
      "renounceRole(bytes32,address)": {
        "details": "Revokes `role` from the calling account. Roles are often managed via {grantRole} and {revokeRole}: this function's purpose is to provide a mechanism for accounts to lose their privileges if they are compromised (such as when a trusted device is misplaced). If the calling account had been revoked `role`, emits a {RoleRevoked} event. Requirements: - the caller must be `account`. May emit a {RoleRevoked} event."
      },
      "revokeRole(bytes32,address)": {
        "details": "Revokes `role` from `account`. If `account` had been granted `role`, emits a {RoleRevoked} event. Requirements: - the caller must have ``role``'s admin role. May emit a {RoleRevoked} event."
      },
      "supportsInterface(bytes4)": {
        "details": "See {IERC165-supportsInterface}."
      },
      "transferOwnership(address)": {
        "details": "Transfers ownership of the contract to a new account (`newOwner`). Can only be called by the current owner."
      }
    },
    "version": 1
  },
  "userdoc": {
    "kind": "user",
    "methods": {},
    "version": 1
  },
  "storageLayout": {
    "storage": [
      {
        "astId": 4181,
        "contract": "contracts/JadeCoreBankroll.sol:JadeCoreBankroll",
        "label": "_owner",
        "offset": 0,
        "slot": "0",
        "type": "t_address"
      },
      {
        "astId": 4296,
        "contract": "contracts/JadeCoreBankroll.sol:JadeCoreBankroll",
        "label": "_status",
        "offset": 0,
        "slot": "1",
        "type": "t_uint256"
      },
      {
        "astId": 5182,
        "contract": "contracts/JadeCoreBankroll.sol:JadeCoreBankroll",
        "label": "_roles",
        "offset": 0,
        "slot": "2",
        "type": "t_mapping(t_bytes32,t_struct(RoleData)5177_storage)"
      },
      {
        "astId": 5511,
        "contract": "contracts/JadeCoreBankroll.sol:JadeCoreBankroll",
        "label": "_roleMembers",
        "offset": 0,
        "slot": "3",
        "type": "t_mapping(t_bytes32,t_struct(AddressSet)3867_storage)"
      }
    ],
    "types": {
      "t_address": {
        "encoding": "inplace",
        "label": "address",
        "numberOfBytes": "20"
      },
      "t_array(t_bytes32)dyn_storage": {
        "base": "t_bytes32",
        "encoding": "dynamic_array",
        "label": "bytes32[]",
        "numberOfBytes": "32"
      },
      "t_bool": {
        "encoding": "inplace",
        "label": "bool",
        "numberOfBytes": "1"
      },
      "t_bytes32": {
        "encoding": "inplace",
        "label": "bytes32",
        "numberOfBytes": "32"
      },
      "t_mapping(t_address,t_bool)": {
        "encoding": "mapping",
        "key": "t_address",
        "label": "mapping(address => bool)",
        "numberOfBytes": "32",
        "value": "t_bool"
      },
      "t_mapping(t_bytes32,t_struct(AddressSet)3867_storage)": {
        "encoding": "mapping",
        "key": "t_bytes32",
        "label": "mapping(bytes32 => struct EnumerableSet.AddressSet)",
        "numberOfBytes": "32",
        "value": "t_struct(AddressSet)3867_storage"
      },
      "t_mapping(t_bytes32,t_struct(RoleData)5177_storage)": {
        "encoding": "mapping",
        "key": "t_bytes32",
        "label": "mapping(bytes32 => struct AccessControl.RoleData)",
        "numberOfBytes": "32",
        "value": "t_struct(RoleData)5177_storage"
      },
      "t_mapping(t_bytes32,t_uint256)": {
        "encoding": "mapping",
        "key": "t_bytes32",
        "label": "mapping(bytes32 => uint256)",
        "numberOfBytes": "32",
        "value": "t_uint256"
      },
      "t_struct(AddressSet)3867_storage": {
        "encoding": "inplace",
        "label": "struct EnumerableSet.AddressSet",
        "members": [
          {
            "astId": 3866,
            "contract": "contracts/JadeCoreBankroll.sol:JadeCoreBankroll",
            "label": "_inner",
            "offset": 0,
            "slot": "0",
            "type": "t_struct(Set)3552_storage"
          }
        ],
        "numberOfBytes": "64"
      },
      "t_struct(RoleData)5177_storage": {
        "encoding": "inplace",
        "label": "struct AccessControl.RoleData",
        "members": [
          {
            "astId": 5174,
            "contract": "contracts/JadeCoreBankroll.sol:JadeCoreBankroll",
            "label": "members",
            "offset": 0,
            "slot": "0",
            "type": "t_mapping(t_address,t_bool)"
          },
          {
            "astId": 5176,
            "contract": "contracts/JadeCoreBankroll.sol:JadeCoreBankroll",
            "label": "adminRole",
            "offset": 0,
            "slot": "1",
            "type": "t_bytes32"
          }
        ],
        "numberOfBytes": "64"
      },
      "t_struct(Set)3552_storage": {
        "encoding": "inplace",
        "label": "struct EnumerableSet.Set",
        "members": [
          {
            "astId": 3547,
            "contract": "contracts/JadeCoreBankroll.sol:JadeCoreBankroll",
            "label": "_values",
            "offset": 0,
            "slot": "0",
            "type": "t_array(t_bytes32)dyn_storage"
          },
          {
            "astId": 3551,
            "contract": "contracts/JadeCoreBankroll.sol:JadeCoreBankroll",
            "label": "_indexes",
            "offset": 0,
            "slot": "1",
            "type": "t_mapping(t_bytes32,t_uint256)"
          }
        ],
        "numberOfBytes": "64"
      },
      "t_uint256": {
        "encoding": "inplace",
        "label": "uint256",
        "numberOfBytes": "32"
      }
    }
  }
}