{
  "address": "0x19cEcCd6942ad38562Ee10bAfd44776ceB67e923",
  "abi": [
    {
      "inputs": [],
      "stateMutability": "nonpayable",
      "type": "constructor"
    },
    {
      "anonymous": false,
      "inputs": [
        {
          "indexed": true,
          "internalType": "address",
          "name": "owner",
          "type": "address"
        },
        {
          "indexed": true,
          "internalType": "address",
          "name": "spender",
          "type": "address"
        },
        {
          "indexed": false,
          "internalType": "uint256",
          "name": "value",
          "type": "uint256"
        }
      ],
      "name": "Approval",
      "type": "event"
    },
    {
      "anonymous": false,
      "inputs": [
        {
          "indexed": false,
          "internalType": "address",
          "name": "from",
          "type": "address"
        },
        {
          "indexed": false,
          "internalType": "uint256",
          "name": "amount",
          "type": "uint256"
        }
      ],
      "name": "Burn",
      "type": "event"
    },
    {
      "anonymous": false,
      "inputs": [
        {
          "indexed": false,
          "internalType": "address",
          "name": "to",
          "type": "address"
        },
        {
          "indexed": false,
          "internalType": "uint256",
          "name": "amount",
          "type": "uint256"
        }
      ],
      "name": "Mint",
      "type": "event"
    },
    {
      "anonymous": false,
      "inputs": [
        {
          "indexed": true,
          "internalType": "address",
          "name": "previousOwner",
          "type": "address"
        },
        {
          "indexed": true,
          "internalType": "address",
          "name": "newOwner",
          "type": "address"
        }
      ],
      "name": "OwnershipTransferred",
      "type": "event"
    },
    {
      "anonymous": false,
      "inputs": [
        {
          "indexed": false,
          "internalType": "uint256",
          "name": "epoch",
          "type": "uint256"
        },
        {
          "indexed": false,
          "internalType": "uint256",
          "name": "prevJadesScalingFactor",
          "type": "uint256"
        },
        {
          "indexed": false,
          "internalType": "uint256",
          "name": "newJadesScalingFactor",
          "type": "uint256"
        }
      ],
      "name": "Rebase",
      "type": "event"
    },
    {
      "anonymous": false,
      "inputs": [
        {
          "indexed": true,
          "internalType": "bytes32",
          "name": "role",
          "type": "bytes32"
        },
        {
          "indexed": true,
          "internalType": "bytes32",
          "name": "previousAdminRole",
          "type": "bytes32"
        },
        {
          "indexed": true,
          "internalType": "bytes32",
          "name": "newAdminRole",
          "type": "bytes32"
        }
      ],
      "name": "RoleAdminChanged",
      "type": "event"
    },
    {
      "anonymous": false,
      "inputs": [
        {
          "indexed": true,
          "internalType": "bytes32",
          "name": "role",
          "type": "bytes32"
        },
        {
          "indexed": true,
          "internalType": "address",
          "name": "account",
          "type": "address"
        },
        {
          "indexed": true,
          "internalType": "address",
          "name": "sender",
          "type": "address"
        }
      ],
      "name": "RoleGranted",
      "type": "event"
    },
    {
      "anonymous": false,
      "inputs": [
        {
          "indexed": true,
          "internalType": "bytes32",
          "name": "role",
          "type": "bytes32"
        },
        {
          "indexed": true,
          "internalType": "address",
          "name": "account",
          "type": "address"
        },
        {
          "indexed": true,
          "internalType": "address",
          "name": "sender",
          "type": "address"
        }
      ],
      "name": "RoleRevoked",
      "type": "event"
    },
    {
      "anonymous": false,
      "inputs": [
        {
          "indexed": false,
          "internalType": "uint256",
          "name": "value",
          "type": "uint256"
        }
      ],
      "name": "StartBlockSet",
      "type": "event"
    },
    {
      "anonymous": false,
      "inputs": [
        {
          "indexed": true,
          "internalType": "address",
          "name": "from",
          "type": "address"
        },
        {
          "indexed": true,
          "internalType": "address",
          "name": "to",
          "type": "address"
        },
        {
          "indexed": false,
          "internalType": "uint256",
          "name": "value",
          "type": "uint256"
        }
      ],
      "name": "Transfer",
      "type": "event"
    },
    {
      "inputs": [],
      "name": "BASE",
      "outputs": [
        {
          "internalType": "uint256",
          "name": "",
          "type": "uint256"
        }
      ],
      "stateMutability": "view",
      "type": "function"
    },
    {
      "inputs": [],
      "name": "DEFAULT_ADMIN_ROLE",
      "outputs": [
        {
          "internalType": "bytes32",
          "name": "",
          "type": "bytes32"
        }
      ],
      "stateMutability": "view",
      "type": "function"
    },
    {
      "inputs": [],
      "name": "DOMAIN_SEPARATOR",
      "outputs": [
        {
          "internalType": "bytes32",
          "name": "",
          "type": "bytes32"
        }
      ],
      "stateMutability": "view",
      "type": "function"
    },
    {
      "inputs": [],
      "name": "DOMAIN_TYPEHASH",
      "outputs": [
        {
          "internalType": "bytes32",
          "name": "",
          "type": "bytes32"
        }
      ],
      "stateMutability": "view",
      "type": "function"
    },
    {
      "inputs": [],
      "name": "JCBRewardPerBlock",
      "outputs": [
        {
          "internalType": "uint256",
          "name": "",
          "type": "uint256"
        }
      ],
      "stateMutability": "view",
      "type": "function"
    },
    {
      "inputs": [],
      "name": "MINTER_ROLE",
      "outputs": [
        {
          "internalType": "bytes32",
          "name": "",
          "type": "bytes32"
        }
      ],
      "stateMutability": "view",
      "type": "function"
    },
    {
      "inputs": [],
      "name": "PERMIT_TYPEHASH",
      "outputs": [
        {
          "internalType": "bytes32",
          "name": "",
          "type": "bytes32"
        }
      ],
      "stateMutability": "view",
      "type": "function"
    },
    {
      "inputs": [],
      "name": "REBASER_ROLE",
      "outputs": [
        {
          "internalType": "bytes32",
          "name": "",
          "type": "bytes32"
        }
      ],
      "stateMutability": "view",
      "type": "function"
    },
    {
      "inputs": [
        {
          "internalType": "address",
          "name": "owner_",
          "type": "address"
        },
        {
          "internalType": "address",
          "name": "spender",
          "type": "address"
        }
      ],
      "name": "allowance",
      "outputs": [
        {
          "internalType": "uint256",
          "name": "",
          "type": "uint256"
        }
      ],
      "stateMutability": "view",
      "type": "function"
    },
    {
      "inputs": [
        {
          "internalType": "address",
          "name": "spender",
          "type": "address"
        },
        {
          "internalType": "uint256",
          "name": "value",
          "type": "uint256"
        }
      ],
      "name": "approve",
      "outputs": [
        {
          "internalType": "bool",
          "name": "",
          "type": "bool"
        }
      ],
      "stateMutability": "nonpayable",
      "type": "function"
    },
    {
      "inputs": [
        {
          "internalType": "address",
          "name": "who",
          "type": "address"
        }
      ],
      "name": "balanceOf",
      "outputs": [
        {
          "internalType": "uint256",
          "name": "",
          "type": "uint256"
        }
      ],
      "stateMutability": "view",
      "type": "function"
    },
    {
      "inputs": [
        {
          "internalType": "address",
          "name": "who",
          "type": "address"
        }
      ],
      "name": "balanceOfUnderlying",
      "outputs": [
        {
          "internalType": "uint256",
          "name": "",
          "type": "uint256"
        }
      ],
      "stateMutability": "view",
      "type": "function"
    },
    {
      "inputs": [
        {
          "internalType": "uint256",
          "name": "amount",
          "type": "uint256"
        }
      ],
      "name": "burn",
      "outputs": [],
      "stateMutability": "nonpayable",
      "type": "function"
    },
    {
      "inputs": [
        {
          "internalType": "address",
          "name": "account",
          "type": "address"
        },
        {
          "internalType": "uint256",
          "name": "amount",
          "type": "uint256"
        }
      ],
      "name": "burnFrom",
      "outputs": [],
      "stateMutability": "nonpayable",
      "type": "function"
    },
    {
      "inputs": [],
      "name": "decimals",
      "outputs": [
        {
          "internalType": "uint8",
          "name": "",
          "type": "uint8"
        }
      ],
      "stateMutability": "view",
      "type": "function"
    },
    {
      "inputs": [
        {
          "internalType": "address",
          "name": "spender",
          "type": "address"
        },
        {
          "internalType": "uint256",
          "name": "subtractedValue",
          "type": "uint256"
        }
      ],
      "name": "decreaseAllowance",
      "outputs": [
        {
          "internalType": "bool",
          "name": "",
          "type": "bool"
        }
      ],
      "stateMutability": "nonpayable",
      "type": "function"
    },
    {
      "inputs": [
        {
          "internalType": "uint256",
          "name": "value",
          "type": "uint256"
        }
      ],
      "name": "fragmentToJade",
      "outputs": [
        {
          "internalType": "uint256",
          "name": "",
          "type": "uint256"
        }
      ],
      "stateMutability": "view",
      "type": "function"
    },
    {
      "inputs": [
        {
          "internalType": "bytes32",
          "name": "role",
          "type": "bytes32"
        }
      ],
      "name": "getRoleAdmin",
      "outputs": [
        {
          "internalType": "bytes32",
          "name": "",
          "type": "bytes32"
        }
      ],
      "stateMutability": "view",
      "type": "function"
    },
    {
      "inputs": [
        {
          "internalType": "bytes32",
          "name": "role",
          "type": "bytes32"
        },
        {
          "internalType": "uint256",
          "name": "index",
          "type": "uint256"
        }
      ],
      "name": "getRoleMember",
      "outputs": [
        {
          "internalType": "address",
          "name": "",
          "type": "address"
        }
      ],
      "stateMutability": "view",
      "type": "function"
    },
    {
      "inputs": [
        {
          "internalType": "bytes32",
          "name": "role",
          "type": "bytes32"
        }
      ],
      "name": "getRoleMemberCount",
      "outputs": [
        {
          "internalType": "uint256",
          "name": "",
          "type": "uint256"
        }
      ],
      "stateMutability": "view",
      "type": "function"
    },
    {
      "inputs": [
        {
          "internalType": "bytes32",
          "name": "role",
          "type": "bytes32"
        },
        {
          "internalType": "address",
          "name": "account",
          "type": "address"
        }
      ],
      "name": "grantRole",
      "outputs": [],
      "stateMutability": "nonpayable",
      "type": "function"
    },
    {
      "inputs": [
        {
          "internalType": "bytes32",
          "name": "role",
          "type": "bytes32"
        },
        {
          "internalType": "address",
          "name": "account",
          "type": "address"
        }
      ],
      "name": "hasRole",
      "outputs": [
        {
          "internalType": "bool",
          "name": "",
          "type": "bool"
        }
      ],
      "stateMutability": "view",
      "type": "function"
    },
    {
      "inputs": [
        {
          "internalType": "address",
          "name": "spender",
          "type": "address"
        },
        {
          "internalType": "uint256",
          "name": "addedValue",
          "type": "uint256"
        }
      ],
      "name": "increaseAllowance",
      "outputs": [
        {
          "internalType": "bool",
          "name": "",
          "type": "bool"
        }
      ],
      "stateMutability": "nonpayable",
      "type": "function"
    },
    {
      "inputs": [],
      "name": "initSupply",
      "outputs": [
        {
          "internalType": "uint256",
          "name": "",
          "type": "uint256"
        }
      ],
      "stateMutability": "view",
      "type": "function"
    },
    {
      "inputs": [],
      "name": "initTimestamp",
      "outputs": [
        {
          "internalType": "uint256",
          "name": "",
          "type": "uint256"
        }
      ],
      "stateMutability": "view",
      "type": "function"
    },
    {
      "inputs": [],
      "name": "internalDecimals",
      "outputs": [
        {
          "internalType": "uint256",
          "name": "",
          "type": "uint256"
        }
      ],
      "stateMutability": "view",
      "type": "function"
    },
    {
      "inputs": [
        {
          "internalType": "uint256",
          "name": "jade",
          "type": "uint256"
        }
      ],
      "name": "jadeToFragment",
      "outputs": [
        {
          "internalType": "uint256",
          "name": "",
          "type": "uint256"
        }
      ],
      "stateMutability": "view",
      "type": "function"
    },
    {
      "inputs": [],
      "name": "jadesScalingFactor",
      "outputs": [
        {
          "internalType": "uint256",
          "name": "",
          "type": "uint256"
        }
      ],
      "stateMutability": "view",
      "type": "function"
    },
    {
      "inputs": [],
      "name": "lastBlock",
      "outputs": [
        {
          "internalType": "uint256",
          "name": "",
          "type": "uint256"
        }
      ],
      "stateMutability": "view",
      "type": "function"
    },
    {
      "inputs": [],
      "name": "maxScalingFactor",
      "outputs": [
        {
          "internalType": "uint256",
          "name": "",
          "type": "uint256"
        }
      ],
      "stateMutability": "view",
      "type": "function"
    },
    {
      "inputs": [
        {
          "internalType": "address",
          "name": "to",
          "type": "address"
        },
        {
          "internalType": "uint256",
          "name": "amount",
          "type": "uint256"
        }
      ],
      "name": "mint",
      "outputs": [
        {
          "internalType": "bool",
          "name": "",
          "type": "bool"
        }
      ],
      "stateMutability": "nonpayable",
      "type": "function"
    },
    {
      "inputs": [
        {
          "internalType": "address",
          "name": "to",
          "type": "address"
        },
        {
          "internalType": "uint256",
          "name": "amount",
          "type": "uint256"
        }
      ],
      "name": "mintUnderlying",
      "outputs": [
        {
          "internalType": "bool",
          "name": "",
          "type": "bool"
        }
      ],
      "stateMutability": "nonpayable",
      "type": "function"
    },
    {
      "inputs": [],
      "name": "name",
      "outputs": [
        {
          "internalType": "string",
          "name": "",
          "type": "string"
        }
      ],
      "stateMutability": "view",
      "type": "function"
    },
    {
      "inputs": [
        {
          "internalType": "address",
          "name": "",
          "type": "address"
        }
      ],
      "name": "nonces",
      "outputs": [
        {
          "internalType": "uint256",
          "name": "",
          "type": "uint256"
        }
      ],
      "stateMutability": "view",
      "type": "function"
    },
    {
      "inputs": [],
      "name": "owner",
      "outputs": [
        {
          "internalType": "address",
          "name": "",
          "type": "address"
        }
      ],
      "stateMutability": "view",
      "type": "function"
    },
    {
      "inputs": [
        {
          "internalType": "address",
          "name": "owner",
          "type": "address"
        },
        {
          "internalType": "address",
          "name": "spender",
          "type": "address"
        },
        {
          "internalType": "uint256",
          "name": "value",
          "type": "uint256"
        },
        {
          "internalType": "uint256",
          "name": "deadline",
          "type": "uint256"
        },
        {
          "internalType": "uint8",
          "name": "v",
          "type": "uint8"
        },
        {
          "internalType": "bytes32",
          "name": "r",
          "type": "bytes32"
        },
        {
          "internalType": "bytes32",
          "name": "s",
          "type": "bytes32"
        }
      ],
      "name": "permit",
      "outputs": [],
      "stateMutability": "nonpayable",
      "type": "function"
    },
    {
      "inputs": [
        {
          "internalType": "uint256",
          "name": "epoch",
          "type": "uint256"
        },
        {
          "internalType": "uint256",
          "name": "indexDelta",
          "type": "uint256"
        },
        {
          "internalType": "bool",
          "name": "positive",
          "type": "bool"
        }
      ],
      "name": "rebase",
      "outputs": [
        {
          "internalType": "uint256",
          "name": "",
          "type": "uint256"
        }
      ],
      "stateMutability": "nonpayable",
      "type": "function"
    },
    {
      "inputs": [],
      "name": "rebaseEnabled",
      "outputs": [
        {
          "internalType": "bool",
          "name": "",
          "type": "bool"
        }
      ],
      "stateMutability": "view",
      "type": "function"
    },
    {
      "inputs": [],
      "name": "renounceOwnership",
      "outputs": [],
      "stateMutability": "nonpayable",
      "type": "function"
    },
    {
      "inputs": [
        {
          "internalType": "bytes32",
          "name": "role",
          "type": "bytes32"
        },
        {
          "internalType": "address",
          "name": "account",
          "type": "address"
        }
      ],
      "name": "renounceRole",
      "outputs": [],
      "stateMutability": "nonpayable",
      "type": "function"
    },
    {
      "inputs": [
        {
          "internalType": "address",
          "name": "token",
          "type": "address"
        },
        {
          "internalType": "address",
          "name": "to",
          "type": "address"
        },
        {
          "internalType": "uint256",
          "name": "amount",
          "type": "uint256"
        }
      ],
      "name": "rescueTokens",
      "outputs": [
        {
          "internalType": "bool",
          "name": "",
          "type": "bool"
        }
      ],
      "stateMutability": "nonpayable",
      "type": "function"
    },
    {
      "inputs": [
        {
          "internalType": "bytes32",
          "name": "role",
          "type": "bytes32"
        },
        {
          "internalType": "address",
          "name": "account",
          "type": "address"
        }
      ],
      "name": "revokeRole",
      "outputs": [],
      "stateMutability": "nonpayable",
      "type": "function"
    },
    {
      "inputs": [
        {
          "internalType": "uint256",
          "name": "_value",
          "type": "uint256"
        }
      ],
      "name": "setLastBlock",
      "outputs": [],
      "stateMutability": "nonpayable",
      "type": "function"
    },
    {
      "inputs": [
        {
          "internalType": "bool",
          "name": "_bool",
          "type": "bool"
        }
      ],
      "name": "setRebaseEnabled",
      "outputs": [],
      "stateMutability": "nonpayable",
      "type": "function"
    },
    {
      "inputs": [
        {
          "internalType": "uint256",
          "name": "_value",
          "type": "uint256"
        }
      ],
      "name": "setStartBlock",
      "outputs": [],
      "stateMutability": "nonpayable",
      "type": "function"
    },
    {
      "inputs": [],
      "name": "startBlock",
      "outputs": [
        {
          "internalType": "uint256",
          "name": "",
          "type": "uint256"
        }
      ],
      "stateMutability": "view",
      "type": "function"
    },
    {
      "inputs": [
        {
          "internalType": "bytes4",
          "name": "interfaceId",
          "type": "bytes4"
        }
      ],
      "name": "supportsInterface",
      "outputs": [
        {
          "internalType": "bool",
          "name": "",
          "type": "bool"
        }
      ],
      "stateMutability": "view",
      "type": "function"
    },
    {
      "inputs": [],
      "name": "symbol",
      "outputs": [
        {
          "internalType": "string",
          "name": "",
          "type": "string"
        }
      ],
      "stateMutability": "view",
      "type": "function"
    },
    {
      "inputs": [],
      "name": "totalSupply",
      "outputs": [
        {
          "internalType": "uint256",
          "name": "",
          "type": "uint256"
        }
      ],
      "stateMutability": "view",
      "type": "function"
    },
    {
      "inputs": [
        {
          "internalType": "address",
          "name": "to",
          "type": "address"
        },
        {
          "internalType": "uint256",
          "name": "value",
          "type": "uint256"
        }
      ],
      "name": "transfer",
      "outputs": [
        {
          "internalType": "bool",
          "name": "",
          "type": "bool"
        }
      ],
      "stateMutability": "nonpayable",
      "type": "function"
    },
    {
      "inputs": [
        {
          "internalType": "address",
          "name": "from",
          "type": "address"
        },
        {
          "internalType": "address",
          "name": "to",
          "type": "address"
        },
        {
          "internalType": "uint256",
          "name": "value",
          "type": "uint256"
        }
      ],
      "name": "transferFrom",
      "outputs": [
        {
          "internalType": "bool",
          "name": "",
          "type": "bool"
        }
      ],
      "stateMutability": "nonpayable",
      "type": "function"
    },
    {
      "inputs": [
        {
          "internalType": "address",
          "name": "newOwner",
          "type": "address"
        }
      ],
      "name": "transferOwnership",
      "outputs": [],
      "stateMutability": "nonpayable",
      "type": "function"
    },
    {
      "inputs": [
        {
          "internalType": "address",
          "name": "to",
          "type": "address"
        },
        {
          "internalType": "uint256",
          "name": "value",
          "type": "uint256"
        }
      ],
      "name": "transferUnderlying",
      "outputs": [
        {
          "internalType": "bool",
          "name": "",
          "type": "bool"
        }
      ],
      "stateMutability": "nonpayable",
      "type": "function"
    }
  ],
  "transactionHash": "0x3ddeb192565bdc0c695075b6b01325c0410beb34b43e6ac355676ad4d3fb6aab",
  "args": [],
  "numDeployments": 1,
  "solcInputHash": "d55d79d14bfe5f0021a09bf5df07e663",
  "bytecode": "0x6080604052681043561a88293000006010556b02df458b3a441482fd4400006013553480156200002e57600080fd5b50604051806040016040528060048152602001634a61646560e01b815250604051806040016040528060048152602001634a41444560e01b815250818181600590816200007c91906200043c565b5060066200008b82826200043c565b506200009d91506000905033620001b5565b620000c97f9f2df0fed2c77648de5860a4cc508cd0818c85b8b8a1ab4ceeef8d981c8956a633620001b5565b620000f57f5fde63b561377d1441afa201ff619faac2ff8fed70a7fbdbe7a5cb07768c0b7533620001b5565b5062000103905033620001c5565b670de0b6b3a76400006008556013546200011d9062000217565b600b819055601354601455600960006200013f6007546001600160a01b031690565b6001600160a01b031681526020808201929092526040908101600090812093909355600d839055600e839055600f805460ff1916905542600c5560135490519081523392917fddf252ad1be2c89b69c2b068fc378daa952ba7f163c4a11628f55a4df523b3ef910160405180910390a362000551565b620001c1828262000245565b5050565b600780546001600160a01b038381166001600160a01b0319831681179093556040519116919082907f8be0079c531659141344cd1fd0a4f28419497f9722a3daafe3b4186f6b6457e090600090a35050565b6008546000906200023f90620002388469d3c21bcecceda100000062000270565b9062000285565b92915050565b62000251828262000293565b60008281526001602052604090206200026b908262000333565b505050565b60006200027e828462000508565b9392505050565b60006200027e82846200052e565b6000828152602081815260408083206001600160a01b038516845290915290205460ff16620001c1576000828152602081815260408083206001600160a01b03851684529091529020805460ff19166001179055620002ef3390565b6001600160a01b0316816001600160a01b0316837f2f8788117e7eff1d82e926ec794901d17c78024a50270940304540a733656f0d60405160405180910390a45050565b60006200027e836001600160a01b03841660008181526001830160205260408120546200038d575081546001818101845560008481526020808220909301849055845484825282860190935260409020919091556200023f565b5060006200023f565b634e487b7160e01b600052604160045260246000fd5b600181811c90821680620003c157607f821691505b602082108103620003e257634e487b7160e01b600052602260045260246000fd5b50919050565b601f8211156200026b576000816000526020600020601f850160051c81016020861015620004135750805b601f850160051c820191505b8181101562000434578281556001016200041f565b505050505050565b81516001600160401b0381111562000458576200045862000396565b6200047081620004698454620003ac565b84620003e8565b602080601f831160018114620004a857600084156200048f5750858301515b600019600386901b1c1916600185901b17855562000434565b600085815260208120601f198616915b82811015620004d957888601518255948401946001909101908401620004b8565b5085821015620004f85787850151600019600388901b60f8161c191681555b5050505050600190811b01905550565b80820281158282048414176200023f57634e487b7160e01b600052601160045260246000fd5b6000826200054c57634e487b7160e01b600052601260045260246000fd5b500490565b61295080620005616000396000f3fe608060405234801561001057600080fd5b50600436106103275760003560e01c8063715018a6116101b8578063a217fddf11610104578063d505accf116100a2578063dd62ed3e1161007c578063dd62ed3e14610702578063ec342ad01461073b578063f2fde38b1461074a578063f35e4a6e1461075d57600080fd5b8063d505accf146106b5578063d5391393146106c8578063d547741f146106ef57600080fd5b8063ac51aa84116100de578063ac51aa8414610679578063babb9a8f14610682578063ca15c8731461068f578063cea9d26f146106a257600080fd5b8063a217fddf1461064b578063a457c2d714610653578063a9059cbb1461066657600080fd5b806383eb70e511610171578063917505f41161014b578063917505f41461061457806391d148541461062757806395d89b411461063a57806397d63f931461064257600080fd5b806383eb70e5146105b55780638da5cb5b146105dc5780639010d07c1461060157600080fd5b8063715018a6146105555780637358c57a1461055d57806379cc6790146105665780637af548c1146105795780637ecebe001461058c578063806b984f146105ac57600080fd5b8063336d26921161027757806342966c68116102305780635d974a661161020a5780635d974a661461050b57806364dd48f51461051e57806366f3bd1c1461052f57806370a082311461054257600080fd5b806342966c68146104dc57806348cd4cb1146104ef5780634b56de38146104f857600080fd5b8063336d26921461045e5780633644e5151461047157806336568abe1461047a578063395093511461048d5780633af9e669146104a057806340c10f19146104c957600080fd5b806320606b70116102e4578063248a9ca3116102be578063248a9ca3146103f05780632f2ff15d1461041357806330adf81f14610428578063313ce5671461044f57600080fd5b806320606b70146103a357806321542605146103ca57806323b872dd146103dd57600080fd5b806301ffc9a71461032c578063060445351461035457806306fdde031461036b578063095ea7b31461038057806311d3e6c41461039357806318160ddd1461039b575b600080fd5b61033f61033a3660046124ae565b610770565b60405190151581526020015b60405180910390f35b61035d60105481565b60405190815260200161034b565b61037361079b565b60405161034b91906124fc565b61033f61038e36600461254b565b61082d565b61035d610887565b60145461035d565b61035d7f8cad95687ba82c2ce50e74f7b754645e5117c3a5bec8151c0726d5857980a86681565b61035d6103d8366004612575565b610896565b61033f6103eb36600461258e565b6108a1565b61035d6103fe366004612575565b60009081526020819052604090206001015490565b6104266104213660046125ca565b6109d5565b005b61035d7f6e71edae12b1b97f4d1f60370fef10105fa2faae0126114a169c64845d6126c981565b6040516012815260200161034b565b61033f61046c36600461254b565b6109ff565b61035d60115481565b6104266104883660046125ca565b610ac1565b61033f61049b36600461254b565b610b44565b61035d6104ae3660046125f6565b6001600160a01b031660009081526009602052604090205490565b61033f6104d736600461254b565b610bb7565b6104266104ea366004612575565b610c3a565b61035d600d5481565b61042661050636600461261f565b610c46565b610426610519366004612575565b610cca565b61035d69d3c21bcecceda100000081565b61035d61053d366004612575565b610d3e565b61035d6105503660046125f6565b610d49565b610426610d6b565b61035d600c5481565b61042661057436600461254b565b610d7f565b61035d61058736600461263c565b610d94565b61035d61059a3660046125f6565b60126020526000908152604090205481565b61035d600e5481565b61035d7f5fde63b561377d1441afa201ff619faac2ff8fed70a7fbdbe7a5cb07768c0b7581565b6007546001600160a01b03165b6040516001600160a01b03909116815260200161034b565b6105e961060f366004612675565b610f78565b61033f61062236600461254b565b610f90565b61033f6106353660046125ca565b61100a565b610373611033565b61035d600b5481565b61035d600081565b61033f61066136600461254b565b611042565b61033f61067436600461254b565b61110a565b61035d60085481565b600f5461033f9060ff1681565b61035d61069d366004612575565b6111db565b61033f6106b036600461258e565b6111f2565b6104266106c3366004612697565b611211565b61035d7f9f2df0fed2c77648de5860a4cc508cd0818c85b8b8a1ab4ceeef8d981c8956a681565b6104266106fd3660046125ca565b611493565b61035d61071036600461270a565b6001600160a01b039182166000908152600a6020908152604080832093909416825291909152205490565b61035d670de0b6b3a764000081565b6104266107583660046125f6565b6114b8565b61042661076b366004612575565b61152e565b60006001600160e01b03198216635a05180f60e01b14806107955750610795826115cc565b92915050565b6060600580546107aa90612734565b80601f01602080910402602001604051908101604052809291908181526020018280546107d690612734565b80156108235780601f106107f857610100808354040283529160200191610823565b820191906000526020600020905b81548152906001019060200180831161080657829003601f168201915b5050505050905090565b336000818152600a602090815260408083206001600160a01b03871680855292528083208590555191929091600080516020612924833981519152906108769086815260200190565b60405180910390a350600192915050565b6000610891611601565b905090565b600061079582611613565b6000826001600160a01b0381166108b757600080fd5b306001600160a01b038216036108cc57600080fd5b6001600160a01b0385166000908152600a602090815260408083203384529091529020546108fa9084611631565b6001600160a01b0386166000908152600a6020908152604080832033845290915281209190915561092a84611613565b6001600160a01b0387166000908152600960205260409020549091506109509082611631565b6001600160a01b03808816600090815260096020526040808220939093559087168152205461097f908261163d565b6001600160a01b038087166000818152600960205260409081902093909355915190881690600080516020612904833981519152906109c19088815260200190565b60405180910390a350600195945050505050565b6000828152602081905260409020600101546109f081611649565b6109fa8383611653565b505050565b6000826001600160a01b038116610a1557600080fd5b306001600160a01b03821603610a2a57600080fd5b33600090815260096020526040902054610a449084611631565b33600090815260096020526040808220929092556001600160a01b03861681522054610a70908461163d565b6001600160a01b03851660008181526009602052604090209190915533600080516020612904833981519152610aa586611675565b6040519081526020015b60405180910390a35060019392505050565b6001600160a01b0381163314610b365760405162461bcd60e51b815260206004820152602f60248201527f416363657373436f6e74726f6c3a2063616e206f6e6c792072656e6f756e636560448201526e103937b632b9903337b91039b2b63360891b60648201526084015b60405180910390fd5b610b40828261169a565b5050565b336000908152600a602090815260408083206001600160a01b0386168452909152812054610b72908361163d565b336000818152600a602090815260408083206001600160a01b038916808552908352928190208590555193845290926000805160206129248339815191529101610876565b6000610be37f9f2df0fed2c77648de5860a4cc508cd0818c85b8b8a1ab4ceeef8d981c8956a63361100a565b610c275760405162461bcd60e51b81526020600482015260156024820152744d7573742068617665206d696e74657220726f6c6560581b6044820152606401610b2d565b610c3183836116bc565b50600192915050565b610c43816117f1565b50565b610c4e6118b0565b600f5460ff1615610cb757600c54610c69906276a700612784565b4211610cb75760405162461bcd60e51b815260206004820152601f60248201527f4d7573742077616974203930206461797320746f2064656163746976617465006044820152606401610b2d565b600f805460ff1916911515919091179055565b610cf47f5fde63b561377d1441afa201ff619faac2ff8fed70a7fbdbe7a5cb07768c0b753361100a565b610d395760405162461bcd60e51b81526020600482015260166024820152754d7573742068617665207265626173657220726f6c6560501b6044820152606401610b2d565b600e55565b600061079582611675565b6001600160a01b03811660009081526009602052604081205461079590611675565b610d736118b0565b610d7d600061190a565b565b610d8a82338361195c565b610b4082826119ee565b600f5460009060ff16610ddb5760405162461bcd60e51b815260206004820152600f60248201526e149958985cd948191a5cd8589b1959608a1b6044820152606401610b2d565b610e057f5fde63b561377d1441afa201ff619faac2ff8fed70a7fbdbe7a5cb07768c0b753361100a565b610e4a5760405162461bcd60e51b81526020600482015260166024820152754d7573742068617665207265626173657220726f6c6560501b6044820152606401610b2d565b82600003610e9e57600854604080518681526020810183905280820192909252517fc6642d24d84e7f3d36ca39f5cce10e75639d9b158d5193aa350e2f900653e4c09181900360600190a150601454610f71565b60085482610ed657610ece670de0b6b3a7640000610ec8610ebf8288611631565b60085490611b10565b90611b1c565b600855610f1a565b6000610ef1670de0b6b3a7640000610ec8610ebf828961163d565b9050610efb611601565b811015610f0c576008819055610f18565b610f14611601565b6008555b505b610f25600b54611675565b601455600854604080518781526020810184905280820192909252517fc6642d24d84e7f3d36ca39f5cce10e75639d9b158d5193aa350e2f900653e4c09181900360600190a150506014545b9392505050565b6000828152600160205260408120610f719083611b28565b6000610fbc7f9f2df0fed2c77648de5860a4cc508cd0818c85b8b8a1ab4ceeef8d981c8956a63361100a565b6110005760405162461bcd60e51b81526020600482015260156024820152744d7573742068617665206d696e74657220726f6c6560581b6044820152606401610b2d565b610c318383611b34565b6000918252602082815260408084206001600160a01b0393909316845291905290205460ff1690565b6060600680546107aa90612734565b336000908152600a602090815260408083206001600160a01b038616845290915281205480831061109657336000908152600a602090815260408083206001600160a01b03881684529091528120556110c5565b6110a08184611631565b336000908152600a602090815260408083206001600160a01b03891684529091529020555b336000818152600a602090815260408083206001600160a01b038916808552908352928190205490519081529192916000805160206129248339815191529101610aaf565b6000826001600160a01b03811661112057600080fd5b306001600160a01b0382160361113557600080fd5b600061114084611613565b3360009081526009602052604090205490915061115d9082611631565b33600090815260096020526040808220929092556001600160a01b03871681522054611189908261163d565b6001600160a01b038616600081815260096020526040908190209290925590513390600080516020612904833981519152906111c89088815260200190565b60405180910390a3506001949350505050565b600081815260016020526040812061079590611c60565b60006111fc6118b0565b611207848484611c6a565b5060019392505050565b834211156112575760405162461bcd60e51b8152602060048201526013602482015272129051114bdc195c9b5a5d0b595e1c1a5c9959606a1b6044820152606401610b2d565b6011546001600160a01b038816600090815260126020526040812080549192917f6e71edae12b1b97f4d1f60370fef10105fa2faae0126114a169c64845d6126c9918b918b918b9190876112aa83612797565b909155506040805160208101969096526001600160a01b0394851690860152929091166060840152608083015260a082015260c0810187905260e0016040516020818303038152906040528051906020012060405160200161132392919061190160f01b81526002810192909252602282015260420190565b60408051601f19818403018152919052805160209091012090506001600160a01b03881661138c5760405162461bcd60e51b815260206004820152601660248201527504a4144452f696e76616c69642d616464726573732d360541b6044820152606401610b2d565b60408051600081526020810180835283905260ff861691810191909152606081018490526080810183905260019060a0016020604051602081039080840390855afa1580156113df573d6000803e3d6000fd5b505050602060405103516001600160a01b0316886001600160a01b03161461143f5760405162461bcd60e51b8152602060048201526013602482015272129051114bda5b9d985b1a590b5c195c9b5a5d606a1b6044820152606401610b2d565b6001600160a01b038881166000818152600a60209081526040808320948c16808452948252918290208a90559051898152600080516020612924833981519152910160405180910390a35050505050505050565b6000828152602081905260409020600101546114ae81611649565b6109fa838361169a565b6114c06118b0565b6001600160a01b0381166115255760405162461bcd60e51b815260206004820152602660248201527f4f776e61626c653a206e6577206f776e657220697320746865207a65726f206160448201526564647265737360d01b6064820152608401610b2d565b610c438161190a565b6115366118b0565b600d54156115915760405162461bcd60e51b815260206004820152602260248201527f7374617274426c6f636b2063616e206f6e6c7920626520736574204f4e434521604482015261212160f01b6064820152608401610b2d565b600d8190556040518181527fc9071777b7b8965ca4af12d74bba5af5f2932e988111a30eeca0afd6ff922f279060200160405180910390a150565b60006001600160e01b03198216637965db0b60e01b148061079557506301ffc9a760e01b6001600160e01b0319831614610795565b6000600b5460001961089191906127b0565b60085460009061079590610ec88469d3c21bcecceda1000000611b10565b6000610f7182846127d2565b6000610f718284612784565b610c438133611cbc565b61165d8282611d15565b60008281526001602052604090206109fa9082611d99565b600061079569d3c21bcecceda1000000610ec860085485611b1090919063ffffffff16565b6116a48282611dae565b60008281526001602052604090206109fa9082611e13565b6014546116c9908261163d565b60145560006116d782611613565b600b549091506116e7908261163d565b600b556116f2611601565b60085411156117435760405162461bcd60e51b815260206004820152601a60248201527f6d6178207363616c696e6720666163746f7220746f6f206c6f770000000000006044820152606401610b2d565b6001600160a01b038316600090815260096020526040902054611766908261163d565b6001600160a01b0384166000818152600960209081526040918290209390935580519182529181018490527f0f6798a560793a54c3bcfe86a93cde1e73087d944c0ea20544137d4121396885910160405180910390a16040518281526001600160a01b03841690600090600080516020612904833981519152906020015b60405180910390a3505050565b6014546117fe9082611631565b601455600061180c82611613565b600b5490915061181c9082611631565b600b55336000908152600960205260409020546118399082611631565b336000818152600960209081526040918290209390935580519182529181018490527fcc16f5dbb4873280815c1ee09dbd06736cffcc184412cf7a71a0fdb75d397ca5910160405180910390a160405182815260009033906000805160206129048339815191529060200160405180910390a35050565b6007546001600160a01b03163314610d7d5760405162461bcd60e51b815260206004820181905260248201527f4f776e61626c653a2063616c6c6572206973206e6f7420746865206f776e65726044820152606401610b2d565b600780546001600160a01b038381166001600160a01b0319831681179093556040519116919082907f8be0079c531659141344cd1fd0a4f28419497f9722a3daafe3b4186f6b6457e090600090a35050565b6001600160a01b038381166000908152600a602090815260408083209386168352929052205460001981146119e857818110156119db5760405162461bcd60e51b815260206004820152601d60248201527f45524332303a20696e73756666696369656e7420616c6c6f77616e63650000006044820152606401610b2d565b6119e88484848403611e28565b50505050565b6001600160a01b038216611a4e5760405162461bcd60e51b815260206004820152602160248201527f45524332303a206275726e2066726f6d20746865207a65726f206164647265736044820152607360f81b6064820152608401610b2d565b6001600160a01b03821660009081526002602052604090205481811015611ac25760405162461bcd60e51b815260206004820152602260248201527f45524332303a206275726e20616d6f756e7420657863656564732062616c616e604482015261636560f01b6064820152608401610b2d565b6001600160a01b0383166000818152600260209081526040808320868603905560048054879003905551858152919291600080516020612904833981519152910160405180910390a3505050565b6000610f7182846127e5565b6000610f7182846127b0565b6000610f718383611f32565b600b54611b41908261163d565b600b556000611b4f82611675565b601454909150611b5f908261163d565b601455611b6a611601565b6008541115611bbb5760405162461bcd60e51b815260206004820152601a60248201527f6d6178207363616c696e6720666163746f7220746f6f206c6f770000000000006044820152606401610b2d565b6001600160a01b038316600090815260096020526040902054611bde908361163d565b6001600160a01b0384166000818152600960209081526040918290209390935580519182529181018390527f0f6798a560793a54c3bcfe86a93cde1e73087d944c0ea20544137d4121396885910160405180910390a16040518181526001600160a01b03841690600090600080516020612904833981519152906020016117e4565b6000610795825490565b604080516001600160a01b038416602482015260448082018490528251808303909101815260649091019091526020810180516001600160e01b031663a9059cbb60e01b1790526109fa908490611f5c565b611cc6828261100a565b610b4057611cd38161202e565b611cde836020612040565b604051602001611cef9291906127fc565b60408051601f198184030181529082905262461bcd60e51b8252610b2d916004016124fc565b611d1f828261100a565b610b40576000828152602081815260408083206001600160a01b03851684529091529020805460ff19166001179055611d553390565b6001600160a01b0316816001600160a01b0316837f2f8788117e7eff1d82e926ec794901d17c78024a50270940304540a733656f0d60405160405180910390a45050565b6000610f71836001600160a01b0384166121dc565b611db8828261100a565b15610b40576000828152602081815260408083206001600160a01b0385168085529252808320805460ff1916905551339285917ff6391f5c32d9c69d2a47ea670b442974b53935d1edc7fd64eb21e047a839171b9190a45050565b6000610f71836001600160a01b03841661222b565b6001600160a01b038316611e8a5760405162461bcd60e51b8152602060048201526024808201527f45524332303a20617070726f76652066726f6d20746865207a65726f206164646044820152637265737360e01b6064820152608401610b2d565b6001600160a01b038216611eeb5760405162461bcd60e51b815260206004820152602260248201527f45524332303a20617070726f766520746f20746865207a65726f206164647265604482015261737360f01b6064820152608401610b2d565b6001600160a01b03838116600081815260036020908152604080832094871680845294825291829020859055905184815260008051602061292483398151915291016117e4565b6000826000018281548110611f4957611f49612871565b9060005260206000200154905092915050565b6000611fb1826040518060400160405280602081526020017f5361666545524332303a206c6f772d6c6576656c2063616c6c206661696c6564815250856001600160a01b031661231e9092919063ffffffff16565b8051909150156109fa5780806020019051810190611fcf9190612887565b6109fa5760405162461bcd60e51b815260206004820152602a60248201527f5361666545524332303a204552433230206f7065726174696f6e20646964206e6044820152691bdd081cdd58d8d9595960b21b6064820152608401610b2d565b60606107956001600160a01b03831660145b6060600061204f8360026127e5565b61205a906002612784565b67ffffffffffffffff811115612072576120726128a4565b6040519080825280601f01601f19166020018201604052801561209c576020820181803683370190505b509050600360fc1b816000815181106120b7576120b7612871565b60200101906001600160f81b031916908160001a905350600f60fb1b816001815181106120e6576120e6612871565b60200101906001600160f81b031916908160001a905350600061210a8460026127e5565b612115906001612784565b90505b600181111561218d576f181899199a1a9b1b9c1cb0b131b232b360811b85600f166010811061214957612149612871565b1a60f81b82828151811061215f5761215f612871565b60200101906001600160f81b031916908160001a90535060049490941c93612186816128ba565b9050612118565b508315610f715760405162461bcd60e51b815260206004820181905260248201527f537472696e67733a20686578206c656e67746820696e73756666696369656e746044820152606401610b2d565b600081815260018301602052604081205461222357508154600181810184556000848152602080822090930184905584548482528286019093526040902091909155610795565b506000610795565b6000818152600183016020526040812054801561231457600061224f6001836127d2565b8554909150600090612263906001906127d2565b90508181146122c857600086600001828154811061228357612283612871565b90600052602060002001549050808760000184815481106122a6576122a6612871565b6000918252602080832090910192909255918252600188019052604090208390555b85548690806122d9576122d96128d1565b600190038181906000526020600020016000905590558560010160008681526020019081526020016000206000905560019350505050610795565b6000915050610795565b606061232d8484600085612335565b949350505050565b6060824710156123965760405162461bcd60e51b815260206004820152602660248201527f416464726573733a20696e73756666696369656e742062616c616e636520666f6044820152651c8818d85b1b60d21b6064820152608401610b2d565b600080866001600160a01b031685876040516123b291906128e7565b60006040518083038185875af1925050503d80600081146123ef576040519150601f19603f3d011682016040523d82523d6000602084013e6123f4565b606091505b509150915061240587838387612410565b979650505050505050565b6060831561247f578251600003612478576001600160a01b0385163b6124785760405162461bcd60e51b815260206004820152601d60248201527f416464726573733a2063616c6c20746f206e6f6e2d636f6e74726163740000006044820152606401610b2d565b508161232d565b61232d83838151156124945781518083602001fd5b8060405162461bcd60e51b8152600401610b2d91906124fc565b6000602082840312156124c057600080fd5b81356001600160e01b031981168114610f7157600080fd5b60005b838110156124f35781810151838201526020016124db565b50506000910152565b602081526000825180602084015261251b8160408501602087016124d8565b601f01601f19169190910160400192915050565b80356001600160a01b038116811461254657600080fd5b919050565b6000806040838503121561255e57600080fd5b6125678361252f565b946020939093013593505050565b60006020828403121561258757600080fd5b5035919050565b6000806000606084860312156125a357600080fd5b6125ac8461252f565b92506125ba6020850161252f565b9150604084013590509250925092565b600080604083850312156125dd57600080fd5b823591506125ed6020840161252f565b90509250929050565b60006020828403121561260857600080fd5b610f718261252f565b8015158114610c4357600080fd5b60006020828403121561263157600080fd5b8135610f7181612611565b60008060006060848603121561265157600080fd5b8335925060208401359150604084013561266a81612611565b809150509250925092565b6000806040838503121561268857600080fd5b50508035926020909101359150565b600080600080600080600060e0888a0312156126b257600080fd5b6126bb8861252f565b96506126c96020890161252f565b95506040880135945060608801359350608088013560ff811681146126ed57600080fd5b9699959850939692959460a0840135945060c09093013592915050565b6000806040838503121561271d57600080fd5b6127268361252f565b91506125ed6020840161252f565b600181811c9082168061274857607f821691505b60208210810361276857634e487b7160e01b600052602260045260246000fd5b50919050565b634e487b7160e01b600052601160045260246000fd5b808201808211156107955761079561276e565b6000600182016127a9576127a961276e565b5060010190565b6000826127cd57634e487b7160e01b600052601260045260246000fd5b500490565b818103818111156107955761079561276e565b80820281158282048414176107955761079561276e565b7f416363657373436f6e74726f6c3a206163636f756e74200000000000000000008152600083516128348160178501602088016124d8565b7001034b99036b4b9b9b4b733903937b6329607d1b60179184019182015283516128658160288401602088016124d8565b01602801949350505050565b634e487b7160e01b600052603260045260246000fd5b60006020828403121561289957600080fd5b8151610f7181612611565b634e487b7160e01b600052604160045260246000fd5b6000816128c9576128c961276e565b506000190190565b634e487b7160e01b600052603160045260246000fd5b600082516128f98184602087016124d8565b919091019291505056feddf252ad1be2c89b69c2b068fc378daa952ba7f163c4a11628f55a4df523b3ef8c5be1e5ebec7d5bd14f71427d1e84f3dd0314c0f7b2291e5b200ac8c7c3b925a164736f6c6343000817000a",
  "devdoc": {
    "events": {
      "Approval(address,address,uint256)": {
        "details": "Emitted when the allowance of a `spender` for an `owner` is set by a call to {approve}. `value` is the new allowance."
      },
      "RoleAdminChanged(bytes32,bytes32,bytes32)": {
        "details": "Emitted when `newAdminRole` is set as ``role``'s admin role, replacing `previousAdminRole` `DEFAULT_ADMIN_ROLE` is the starting admin for all roles, despite {RoleAdminChanged} not being emitted signaling this. _Available since v3.1._"
      },
      "RoleGranted(bytes32,address,address)": {
        "details": "Emitted when `account` is granted `role`. `sender` is the account that originated the contract call, an admin role bearer except when using {AccessControl-_setupRole}."
      },
      "RoleRevoked(bytes32,address,address)": {
        "details": "Emitted when `account` is revoked `role`. `sender` is the account that originated the contract call:   - if using `revokeRole`, it is the admin role bearer   - if using `renounceRole`, it is the role bearer (i.e. `account`)"
      },
      "Transfer(address,address,uint256)": {
        "details": "Emitted when `value` tokens are moved from one account (`from`) to another (`to`). Note that `value` may be zero."
      }
    },
    "kind": "dev",
    "methods": {
      "allowance(address,address)": {
        "details": "Function to check the amount of tokens that an owner has allowed to a spender.",
        "params": {
          "owner_": "The address which owns the funds.",
          "spender": "The address which will spend the funds."
        },
        "returns": {
          "_0": "The number of tokens still available for the spender."
        }
      },
      "approve(address,uint256)": {
        "details": "Approve the passed address to spend the specified amount of tokens on behalf of msg.sender. This method is included for ERC20 compatibility. increaseAllowance and decreaseAllowance should be used instead. Changing an allowance with this method brings the risk that someone may transfer both the old and the new allowance - if they are both greater than zero - if a transfer transaction is mined before the later approve() call is mined.",
        "params": {
          "spender": "The address which will spend the funds.",
          "value": "The amount of tokens to be spent."
        }
      },
      "balanceOf(address)": {
        "params": {
          "who": "The address to query."
        },
        "returns": {
          "_0": "The balance of the specified address."
        }
      },
      "balanceOfUnderlying(address)": {
        "params": {
          "who": "The address to query."
        },
        "returns": {
          "_0": "The underlying balance of the specified address."
        }
      },
      "burnFrom(address,uint256)": {
        "details": "Destroys `amount` tokens from `account`, deducting from the caller's allowance. See {ERC20-_burn} and {ERC20-allowance}. Requirements: - the caller must have allowance for ``accounts``'s tokens of at least `amount`."
      },
      "decimals()": {
        "details": "Returns the number of decimals used to get its user representation. For example, if `decimals` equals `2`, a balance of `505` tokens should be displayed to a user as `5.05` (`505 / 10 ** 2`). Tokens usually opt for a value of 18, imitating the relationship between Ether and Wei. This is the value {ERC20} uses, unless this function is overridden; NOTE: This information is only used for _display_ purposes: it in no way affects any of the arithmetic of the contract, including {IERC20-balanceOf} and {IERC20-transfer}."
      },
      "decreaseAllowance(address,uint256)": {
        "details": "Decrease the amount of tokens that an owner has allowed to a spender.",
        "params": {
          "spender": "The address which will spend the funds.",
          "subtractedValue": "The amount of tokens to decrease the allowance by."
        }
      },
      "getRoleAdmin(bytes32)": {
        "details": "Returns the admin role that controls `role`. See {grantRole} and {revokeRole}. To change a role's admin, use {_setRoleAdmin}."
      },
      "getRoleMember(bytes32,uint256)": {
        "details": "Returns one of the accounts that have `role`. `index` must be a value between 0 and {getRoleMemberCount}, non-inclusive. Role bearers are not sorted in any particular way, and their ordering may change at any point. WARNING: When using {getRoleMember} and {getRoleMemberCount}, make sure you perform all queries on the same block. See the following https://forum.openzeppelin.com/t/iterating-over-elements-on-enumerableset-in-openzeppelin-contracts/2296[forum post] for more information."
      },
      "getRoleMemberCount(bytes32)": {
        "details": "Returns the number of accounts that have `role`. Can be used together with {getRoleMember} to enumerate all bearers of a role."
      },
      "grantRole(bytes32,address)": {
        "details": "Grants `role` to `account`. If `account` had not been already granted `role`, emits a {RoleGranted} event. Requirements: - the caller must have ``role``'s admin role. May emit a {RoleGranted} event."
      },
      "hasRole(bytes32,address)": {
        "details": "Returns `true` if `account` has been granted `role`."
      },
      "increaseAllowance(address,uint256)": {
        "details": "Increase the amount of tokens that an owner has allowed to a spender. This method should be used instead of approve() to avoid the double approval vulnerability described above.",
        "params": {
          "addedValue": "The amount of tokens to increase the allowance by.",
          "spender": "The address which will spend the funds."
        }
      },
      "name()": {
        "details": "Returns the name of the token."
      },
      "owner()": {
        "details": "Returns the address of the current owner."
      },
      "renounceOwnership()": {
        "details": "Leaves the contract without owner. It will not be possible to call `onlyOwner` functions anymore. Can only be called by the current owner. NOTE: Renouncing ownership will leave the contract without an owner, thereby removing any functionality that is only available to the owner."
      },
      "renounceRole(bytes32,address)": {
        "details": "Revokes `role` from the calling account. Roles are often managed via {grantRole} and {revokeRole}: this function's purpose is to provide a mechanism for accounts to lose their privileges if they are compromised (such as when a trusted device is misplaced). If the calling account had been revoked `role`, emits a {RoleRevoked} event. Requirements: - the caller must be `account`. May emit a {RoleRevoked} event."
      },
      "revokeRole(bytes32,address)": {
        "details": "Revokes `role` from `account`. If `account` had been granted `role`, emits a {RoleRevoked} event. Requirements: - the caller must have ``role``'s admin role. May emit a {RoleRevoked} event."
      },
      "supportsInterface(bytes4)": {
        "details": "See {IERC165-supportsInterface}."
      },
      "symbol()": {
        "details": "Returns the symbol of the token, usually a shorter version of the name."
      },
      "totalSupply()": {
        "returns": {
          "_0": "The total number of fragments."
        }
      },
      "transfer(address,uint256)": {
        "details": "Transfer tokens to a specified address.",
        "params": {
          "to": "The address to transfer to.",
          "value": "The amount to be transferred."
        },
        "returns": {
          "_0": "True on success, false otherwise."
        }
      },
      "transferFrom(address,address,uint256)": {
        "details": "Transfer tokens from one address to another.",
        "params": {
          "from": "The address you want to send tokens from.",
          "to": "The address you want to transfer to.",
          "value": "The amount of tokens to be transferred."
        }
      },
      "transferOwnership(address)": {
        "details": "Transfers ownership of the contract to a new account (`newOwner`). Can only be called by the current owner."
      },
      "transferUnderlying(address,uint256)": {
        "details": "Transfer underlying balance to a specified address.",
        "params": {
          "to": "The address to transfer to.",
          "value": "The amount to be transferred."
        },
        "returns": {
          "_0": "True on success, false otherwise."
        }
      }
    },
    "stateVariables": {
      "_notEntered": {
        "details": "Guard variable for re-entrancy checks. Not currently used"
      }
    },
    "version": 1
  },
  "userdoc": {
    "events": {
      "Burn(address,uint256)": {
        "notice": "Tokens burned event"
      },
      "Mint(address,uint256)": {
        "notice": "Tokens minted event"
      },
      "Rebase(uint256,uint256,uint256)": {
        "notice": "Event emitted when tokens are rebased"
      },
      "StartBlockSet(uint256)": {
        "notice": "InitTimestamp set (see rebase())"
      }
    },
    "kind": "user",
    "methods": {
      "BASE()": {
        "notice": "Used for percentage maths"
      },
      "DOMAIN_TYPEHASH()": {
        "notice": "The EIP-712 typehash for the contract's domain"
      },
      "balanceOfUnderlying(address)": {
        "notice": "Currently returns the internal storage amount"
      },
      "burn(uint256)": {
        "notice": "Burns tokens from msg.sender, decreases totalSupply, initSupply, and a users balance."
      },
      "internalDecimals()": {
        "notice": "Internal decimals used to handle scaling factor"
      },
      "jadesScalingFactor()": {
        "notice": "Scaling factor that adjusts everyone's balances"
      },
      "maxScalingFactor()": {
        "notice": "Computes the current max scaling factor"
      },
      "mint(address,uint256)": {
        "notice": "Mints new tokens, increasing totalSupply, initSupply, and a users balance."
      },
      "mintUnderlying(address,uint256)": {
        "notice": "Mints new tokens using underlying amount, increasing totalSupply, initSupply, and a users balance."
      }
    },
    "version": 1
  },
  "storageLayout": {
    "storage": [
      {
        "astId": 8961,
        "contract": "contracts/JadeToken.sol:JadeToken",
        "label": "_roles",
        "offset": 0,
        "slot": "0",
        "type": "t_mapping(t_bytes32,t_struct(RoleData)8956_storage)"
      },
      {
        "astId": 9267,
        "contract": "contracts/JadeToken.sol:JadeToken",
        "label": "_roleMembers",
        "offset": 0,
        "slot": "1",
        "type": "t_mapping(t_bytes32,t_struct(AddressSet)7468_storage)"
      },
      {
        "astId": 9960,
        "contract": "contracts/JadeToken.sol:JadeToken",
        "label": "_balances",
        "offset": 0,
        "slot": "2",
        "type": "t_mapping(t_address,t_uint256)"
      },
      {
        "astId": 9966,
        "contract": "contracts/JadeToken.sol:JadeToken",
        "label": "_allowances",
        "offset": 0,
        "slot": "3",
        "type": "t_mapping(t_address,t_mapping(t_address,t_uint256))"
      },
      {
        "astId": 9968,
        "contract": "contracts/JadeToken.sol:JadeToken",
        "label": "_totalSupply",
        "offset": 0,
        "slot": "4",
        "type": "t_uint256"
      },
      {
        "astId": 9970,
        "contract": "contracts/JadeToken.sol:JadeToken",
        "label": "_name",
        "offset": 0,
        "slot": "5",
        "type": "t_string_storage"
      },
      {
        "astId": 9972,
        "contract": "contracts/JadeToken.sol:JadeToken",
        "label": "_symbol",
        "offset": 0,
        "slot": "6",
        "type": "t_string_storage"
      },
      {
        "astId": 9379,
        "contract": "contracts/JadeToken.sol:JadeToken",
        "label": "_owner",
        "offset": 0,
        "slot": "7",
        "type": "t_address"
      },
      {
        "astId": 11319,
        "contract": "contracts/JadeToken.sol:JadeToken",
        "label": "_notEntered",
        "offset": 20,
        "slot": "7",
        "type": "t_bool"
      },
      {
        "astId": 11334,
        "contract": "contracts/JadeToken.sol:JadeToken",
        "label": "jadesScalingFactor",
        "offset": 0,
        "slot": "8",
        "type": "t_uint256"
      },
      {
        "astId": 11338,
        "contract": "contracts/JadeToken.sol:JadeToken",
        "label": "_jadeBalances",
        "offset": 0,
        "slot": "9",
        "type": "t_mapping(t_address,t_uint256)"
      },
      {
        "astId": 11344,
        "contract": "contracts/JadeToken.sol:JadeToken",
        "label": "_allowedFragments",
        "offset": 0,
        "slot": "10",
        "type": "t_mapping(t_address,t_mapping(t_address,t_uint256))"
      },
      {
        "astId": 11346,
        "contract": "contracts/JadeToken.sol:JadeToken",
        "label": "initSupply",
        "offset": 0,
        "slot": "11",
        "type": "t_uint256"
      },
      {
        "astId": 11348,
        "contract": "contracts/JadeToken.sol:JadeToken",
        "label": "initTimestamp",
        "offset": 0,
        "slot": "12",
        "type": "t_uint256"
      },
      {
        "astId": 11350,
        "contract": "contracts/JadeToken.sol:JadeToken",
        "label": "startBlock",
        "offset": 0,
        "slot": "13",
        "type": "t_uint256"
      },
      {
        "astId": 11352,
        "contract": "contracts/JadeToken.sol:JadeToken",
        "label": "lastBlock",
        "offset": 0,
        "slot": "14",
        "type": "t_uint256"
      },
      {
        "astId": 11354,
        "contract": "contracts/JadeToken.sol:JadeToken",
        "label": "rebaseEnabled",
        "offset": 0,
        "slot": "15",
        "type": "t_bool"
      },
      {
        "astId": 11357,
        "contract": "contracts/JadeToken.sol:JadeToken",
        "label": "JCBRewardPerBlock",
        "offset": 0,
        "slot": "16",
        "type": "t_uint256"
      },
      {
        "astId": 11362,
        "contract": "contracts/JadeToken.sol:JadeToken",
        "label": "DOMAIN_SEPARATOR",
        "offset": 0,
        "slot": "17",
        "type": "t_bytes32"
      },
      {
        "astId": 11366,
        "contract": "contracts/JadeToken.sol:JadeToken",
        "label": "nonces",
        "offset": 0,
        "slot": "18",
        "type": "t_mapping(t_address,t_uint256)"
      },
      {
        "astId": 11379,
        "contract": "contracts/JadeToken.sol:JadeToken",
        "label": "INIT_SUPPLY",
        "offset": 0,
        "slot": "19",
        "type": "t_uint256"
      },
      {
        "astId": 11381,
        "contract": "contracts/JadeToken.sol:JadeToken",
        "label": "_totalSupply",
        "offset": 0,
        "slot": "20",
        "type": "t_uint256"
      }
    ],
    "types": {
      "t_address": {
        "encoding": "inplace",
        "label": "address",
        "numberOfBytes": "20"
      },
      "t_array(t_bytes32)dyn_storage": {
        "base": "t_bytes32",
        "encoding": "dynamic_array",
        "label": "bytes32[]",
        "numberOfBytes": "32"
      },
      "t_bool": {
        "encoding": "inplace",
        "label": "bool",
        "numberOfBytes": "1"
      },
      "t_bytes32": {
        "encoding": "inplace",
        "label": "bytes32",
        "numberOfBytes": "32"
      },
      "t_mapping(t_address,t_bool)": {
        "encoding": "mapping",
        "key": "t_address",
        "label": "mapping(address => bool)",
        "numberOfBytes": "32",
        "value": "t_bool"
      },
      "t_mapping(t_address,t_mapping(t_address,t_uint256))": {
        "encoding": "mapping",
        "key": "t_address",
        "label": "mapping(address => mapping(address => uint256))",
        "numberOfBytes": "32",
        "value": "t_mapping(t_address,t_uint256)"
      },
      "t_mapping(t_address,t_uint256)": {
        "encoding": "mapping",
        "key": "t_address",
        "label": "mapping(address => uint256)",
        "numberOfBytes": "32",
        "value": "t_uint256"
      },
      "t_mapping(t_bytes32,t_struct(AddressSet)7468_storage)": {
        "encoding": "mapping",
        "key": "t_bytes32",
        "label": "mapping(bytes32 => struct EnumerableSet.AddressSet)",
        "numberOfBytes": "32",
        "value": "t_struct(AddressSet)7468_storage"
      },
      "t_mapping(t_bytes32,t_struct(RoleData)8956_storage)": {
        "encoding": "mapping",
        "key": "t_bytes32",
        "label": "mapping(bytes32 => struct AccessControl.RoleData)",
        "numberOfBytes": "32",
        "value": "t_struct(RoleData)8956_storage"
      },
      "t_mapping(t_bytes32,t_uint256)": {
        "encoding": "mapping",
        "key": "t_bytes32",
        "label": "mapping(bytes32 => uint256)",
        "numberOfBytes": "32",
        "value": "t_uint256"
      },
      "t_string_storage": {
        "encoding": "bytes",
        "label": "string",
        "numberOfBytes": "32"
      },
      "t_struct(AddressSet)7468_storage": {
        "encoding": "inplace",
        "label": "struct EnumerableSet.AddressSet",
        "members": [
          {
            "astId": 7467,
            "contract": "contracts/JadeToken.sol:JadeToken",
            "label": "_inner",
            "offset": 0,
            "slot": "0",
            "type": "t_struct(Set)7153_storage"
          }
        ],
        "numberOfBytes": "64"
      },
      "t_struct(RoleData)8956_storage": {
        "encoding": "inplace",
        "label": "struct AccessControl.RoleData",
        "members": [
          {
            "astId": 8953,
            "contract": "contracts/JadeToken.sol:JadeToken",
            "label": "members",
            "offset": 0,
            "slot": "0",
            "type": "t_mapping(t_address,t_bool)"
          },
          {
            "astId": 8955,
            "contract": "contracts/JadeToken.sol:JadeToken",
            "label": "adminRole",
            "offset": 0,
            "slot": "1",
            "type": "t_bytes32"
          }
        ],
        "numberOfBytes": "64"
      },
      "t_struct(Set)7153_storage": {
        "encoding": "inplace",
        "label": "struct EnumerableSet.Set",
        "members": [
          {
            "astId": 7148,
            "contract": "contracts/JadeToken.sol:JadeToken",
            "label": "_values",
            "offset": 0,
            "slot": "0",
            "type": "t_array(t_bytes32)dyn_storage"
          },
          {
            "astId": 7152,
            "contract": "contracts/JadeToken.sol:JadeToken",
            "label": "_indexes",
            "offset": 0,
            "slot": "1",
            "type": "t_mapping(t_bytes32,t_uint256)"
          }
        ],
        "numberOfBytes": "64"
      },
      "t_uint256": {
        "encoding": "inplace",
        "label": "uint256",
        "numberOfBytes": "32"
      }
    }
  }
}