{
  "address": "0xfcDB4564c18A9134002b9771816092C9693622e3",
  "abi": [
    {
      "inputs": [
        {
          "internalType": "address",
          "name": "_bankroll",
          "type": "address"
        },
        {
          "internalType": "address",
          "name": "_forwarder",
          "type": "address"
        },
        {
          "internalType": "address",
          "name": "_oracle",
          "type": "address"
        },
        {
          "internalType": "string",
          "name": "_jobId",
          "type": "string"
        },
        {
          "internalType": "uint256",
          "name": "_fee",
          "type": "uint256"
        }
      ],
      "stateMutability": "nonpayable",
      "type": "constructor"
    },
    {
      "inputs": [
        {
          "internalType": "address",
          "name": "target",
          "type": "address"
        }
      ],
      "name": "AddressEmptyCode",
      "type": "error"
    },
    {
      "inputs": [
        {
          "internalType": "address",
          "name": "account",
          "type": "address"
        }
      ],
      "name": "AddressInsufficientBalance",
      "type": "error"
    },
    {
      "inputs": [
        {
          "internalType": "bytes32",
          "name": "requestID",
          "type": "bytes32"
        }
      ],
      "name": "AwaitingVRF",
      "type": "error"
    },
    {
      "inputs": [
        {
          "internalType": "uint256",
          "name": "have",
          "type": "uint256"
        },
        {
          "internalType": "uint256",
          "name": "want",
          "type": "uint256"
        }
      ],
      "name": "BlockNumberTooLow",
      "type": "error"
    },
    {
      "inputs": [],
      "name": "FailedInnerCall",
      "type": "error"
    },
    {
      "inputs": [
        {
          "internalType": "uint256",
          "name": "maxNumBets",
          "type": "uint256"
        }
      ],
      "name": "InvalidNumBets",
      "type": "error"
    },
    {
      "inputs": [],
      "name": "InvalidNumRows",
      "type": "error"
    },
    {
      "inputs": [],
      "name": "InvalidNumberToSet",
      "type": "error"
    },
    {
      "inputs": [],
      "name": "InvalidRisk",
      "type": "error"
    },
    {
      "inputs": [
        {
          "internalType": "uint256",
          "name": "required",
          "type": "uint256"
        },
        {
          "internalType": "uint256",
          "name": "sent",
          "type": "uint256"
        }
      ],
      "name": "InvalidValue",
      "type": "error"
    },
    {
      "inputs": [
        {
          "internalType": "uint256",
          "name": "multipliers",
          "type": "uint256"
        },
        {
          "internalType": "uint256",
          "name": "outcome",
          "type": "uint256"
        }
      ],
      "name": "MismatchedLength",
      "type": "error"
    },
    {
      "inputs": [
        {
          "internalType": "uint8",
          "name": "numRows",
          "type": "uint8"
        },
        {
          "internalType": "uint8",
          "name": "risk",
          "type": "uint8"
        }
      ],
      "name": "MultiplierAlreadySet",
      "type": "error"
    },
    {
      "inputs": [],
      "name": "NotApprovedBankroll",
      "type": "error"
    },
    {
      "inputs": [
        {
          "internalType": "address",
          "name": "want",
          "type": "address"
        },
        {
          "internalType": "address",
          "name": "have",
          "type": "address"
        }
      ],
      "name": "NotOwner",
      "type": "error"
    },
    {
      "inputs": [
        {
          "internalType": "uint256",
          "name": "suspensionTime",
          "type": "uint256"
        }
      ],
      "name": "PlayerSuspended",
      "type": "error"
    },
    {
      "inputs": [],
      "name": "ReentrancyGuardReentrantCall",
      "type": "error"
    },
    {
      "inputs": [],
      "name": "RefundFailed",
      "type": "error"
    },
    {
      "inputs": [
        {
          "internalType": "address",
          "name": "token",
          "type": "address"
        }
      ],
      "name": "SafeERC20FailedOperation",
      "type": "error"
    },
    {
      "inputs": [],
      "name": "TransferFailed",
      "type": "error"
    },
    {
      "inputs": [
        {
          "internalType": "uint256",
          "name": "wager",
          "type": "uint256"
        },
        {
          "internalType": "uint256",
          "name": "maxWager",
          "type": "uint256"
        }
      ],
      "name": "WagerAboveLimit",
      "type": "error"
    },
    {
      "inputs": [],
      "name": "ZeroWager",
      "type": "error"
    },
    {
      "anonymous": false,
      "inputs": [
        {
          "indexed": true,
          "internalType": "bytes32",
          "name": "id",
          "type": "bytes32"
        }
      ],
      "name": "ChainlinkCancelled",
      "type": "event"
    },
    {
      "anonymous": false,
      "inputs": [
        {
          "indexed": true,
          "internalType": "bytes32",
          "name": "id",
          "type": "bytes32"
        }
      ],
      "name": "ChainlinkFulfilled",
      "type": "event"
    },
    {
      "anonymous": false,
      "inputs": [
        {
          "indexed": true,
          "internalType": "bytes32",
          "name": "id",
          "type": "bytes32"
        }
      ],
      "name": "ChainlinkRequested",
      "type": "event"
    },
    {
      "anonymous": false,
      "inputs": [
        {
          "indexed": true,
          "internalType": "address",
          "name": "from",
          "type": "address"
        },
        {
          "indexed": true,
          "internalType": "address",
          "name": "to",
          "type": "address"
        }
      ],
      "name": "OwnershipTransferRequested",
      "type": "event"
    },
    {
      "anonymous": false,
      "inputs": [
        {
          "indexed": true,
          "internalType": "address",
          "name": "from",
          "type": "address"
        },
        {
          "indexed": true,
          "internalType": "address",
          "name": "to",
          "type": "address"
        }
      ],
      "name": "OwnershipTransferred",
      "type": "event"
    },
    {
      "anonymous": false,
      "inputs": [
        {
          "indexed": true,
          "internalType": "address",
          "name": "playerAddress",
          "type": "address"
        },
        {
          "indexed": false,
          "internalType": "uint256",
          "name": "wager",
          "type": "uint256"
        },
        {
          "indexed": false,
          "internalType": "uint256",
          "name": "payout",
          "type": "uint256"
        },
        {
          "indexed": false,
          "internalType": "address",
          "name": "tokenAddress",
          "type": "address"
        },
        {
          "indexed": false,
          "internalType": "uint16[]",
          "name": "paths",
          "type": "uint16[]"
        },
        {
          "indexed": false,
          "internalType": "uint8",
          "name": "numRows",
          "type": "uint8"
        },
        {
          "indexed": false,
          "internalType": "uint8",
          "name": "risk",
          "type": "uint8"
        },
        {
          "indexed": false,
          "internalType": "uint256[]",
          "name": "payouts",
          "type": "uint256[]"
        },
        {
          "indexed": false,
          "internalType": "uint32",
          "name": "numGames",
          "type": "uint32"
        }
      ],
      "name": "Plinko_Outcome_Event",
      "type": "event"
    },
    {
      "anonymous": false,
      "inputs": [
        {
          "indexed": true,
          "internalType": "address",
          "name": "playerAddress",
          "type": "address"
        },
        {
          "indexed": false,
          "internalType": "uint256",
          "name": "wager",
          "type": "uint256"
        },
        {
          "indexed": false,
          "internalType": "address",
          "name": "tokenAddress",
          "type": "address"
        },
        {
          "indexed": false,
          "internalType": "uint8",
          "name": "numRows",
          "type": "uint8"
        },
        {
          "indexed": false,
          "internalType": "uint8",
          "name": "risk",
          "type": "uint8"
        },
        {
          "indexed": false,
          "internalType": "uint256",
          "name": "numBets",
          "type": "uint256"
        },
        {
          "indexed": false,
          "internalType": "uint256",
          "name": "stopGain",
          "type": "uint256"
        },
        {
          "indexed": false,
          "internalType": "uint256",
          "name": "stopLoss",
          "type": "uint256"
        },
        {
          "indexed": false,
          "internalType": "uint256",
          "name": "VRFFee",
          "type": "uint256"
        }
      ],
      "name": "Plinko_Play_Event",
      "type": "event"
    },
    {
      "anonymous": false,
      "inputs": [
        {
          "indexed": true,
          "internalType": "address",
          "name": "player",
          "type": "address"
        },
        {
          "indexed": false,
          "internalType": "uint256",
          "name": "wager",
          "type": "uint256"
        },
        {
          "indexed": false,
          "internalType": "address",
          "name": "tokenAddress",
          "type": "address"
        }
      ],
      "name": "Plinko_Refund_Event",
      "type": "event"
    },
    {
      "inputs": [],
      "name": "Bankroll",
      "outputs": [
        {
          "internalType": "contract IBankRoll",
          "name": "",
          "type": "address"
        }
      ],
      "stateMutability": "view",
      "type": "function"
    },
    {
      "inputs": [
        {
          "internalType": "uint256",
          "name": "wager",
          "type": "uint256"
        },
        {
          "internalType": "address",
          "name": "tokenAddress",
          "type": "address"
        },
        {
          "internalType": "uint8",
          "name": "numRows",
          "type": "uint8"
        },
        {
          "internalType": "uint8",
          "name": "risk",
          "type": "uint8"
        },
        {
          "internalType": "uint256",
          "name": "numBets",
          "type": "uint256"
        },
        {
          "internalType": "uint256",
          "name": "stopGain",
          "type": "uint256"
        },
        {
          "internalType": "uint256",
          "name": "stopLoss",
          "type": "uint256"
        }
      ],
      "name": "Plinko_Play",
      "outputs": [],
      "stateMutability": "payable",
      "type": "function"
    },
    {
      "inputs": [],
      "name": "_trustedForwarder",
      "outputs": [
        {
          "internalType": "address",
          "name": "",
          "type": "address"
        }
      ],
      "stateMutability": "view",
      "type": "function"
    },
    {
      "inputs": [],
      "name": "acceptOwnership",
      "outputs": [],
      "stateMutability": "nonpayable",
      "type": "function"
    },
    {
      "inputs": [
        {
          "internalType": "bytes32",
          "name": "requestId",
          "type": "bytes32"
        },
        {
          "internalType": "uint256[]",
          "name": "randomWords",
          "type": "uint256[]"
        }
      ],
      "name": "fulfillRandomWords",
      "outputs": [],
      "stateMutability": "nonpayable",
      "type": "function"
    },
    {
      "inputs": [
        {
          "internalType": "address",
          "name": "forwarder",
          "type": "address"
        }
      ],
      "name": "isTrustedForwarder",
      "outputs": [
        {
          "internalType": "bool",
          "name": "",
          "type": "bool"
        }
      ],
      "stateMutability": "view",
      "type": "function"
    },
    {
      "inputs": [],
      "name": "owner",
      "outputs": [
        {
          "internalType": "address",
          "name": "",
          "type": "address"
        }
      ],
      "stateMutability": "view",
      "type": "function"
    },
    {
      "inputs": [
        {
          "internalType": "uint256",
          "name": "_feeInJuels",
          "type": "uint256"
        }
      ],
      "name": "setFeeInJuels",
      "outputs": [],
      "stateMutability": "nonpayable",
      "type": "function"
    },
    {
      "inputs": [
        {
          "internalType": "string",
          "name": "_jobId",
          "type": "string"
        }
      ],
      "name": "setJobId",
      "outputs": [],
      "stateMutability": "nonpayable",
      "type": "function"
    },
    {
      "inputs": [
        {
          "internalType": "address",
          "name": "_oracleAddress",
          "type": "address"
        }
      ],
      "name": "setOracleAddress",
      "outputs": [],
      "stateMutability": "nonpayable",
      "type": "function"
    },
    {
      "inputs": [
        {
          "internalType": "address",
          "name": "to",
          "type": "address"
        }
      ],
      "name": "transferOwnership",
      "outputs": [],
      "stateMutability": "nonpayable",
      "type": "function"
    }
  ],
  "transactionHash": "0x19c02c34fa47e2a6ec4d7fb95f6b67d95cd25db2b7e29b0a88a385fb89f69084",
  "args": [
    "0xD42912755319665397FF090fBB63B1a31aE87Cee",
    "0xf39Fd6e51aad88F6F4ce6aB8827279cffFb92266",
    "0xc287d52DFF95A6A49bdd2c3BB985c0E581b33d9c",
    "04b672c3f6ea455184c7d8700dd71851",
    0
  ],
  "numDeployments": 1,
  "solcInputHash": "d55d79d14bfe5f0021a09bf5df07e663",
  "bytecode": "0x608060405260016007553480156200001657600080fd5b506040516200232e3803806200232e8339810160408190526200003991620004bf565b600160009081553390819081620000975760405162461bcd60e51b815260206004820152601860248201527f43616e6e6f7420736574206f776e657220746f207a65726f000000000000000060448201526064015b60405180910390fd5b600980546001600160a01b0319166001600160a01b0384811691909117909155811615620000ca57620000ca8162000288565b5050600280546001600160a01b03199081166001600160a01b038981169190911790925560018054821692881692909217909155600580549091167388038752750d7717a19f2a681ef75e65fb714f1e17905550620001298362000334565b62000134826200036c565b6200013f8162000387565b60408051610120810182526208bee781526203acb060208201526205adbe918101919091526204163b60608201526206ea6e60808201526207538c60a08201526205008960c08201526205dd6460e0820152620723e0610100820152620001ab906012906009620003f4565b5060408051610120810182526201a67d8152620187446020820152620189f8918101919091526201409160608201526201674d60808201526201473c60a0820152620109fc60c082015262010f6360e0820152620187c06101008201526200021890601b906009620003f4565b506040805161012081018252617a89815261658e60208201526195fa91810191909152616c8b6060820152617296608082015261714c60a08201526158ec60c08201526153bf60e0820152616a366101008201526200027c9060249060096200043e565b505050505050620005fe565b336001600160a01b03821603620002e25760405162461bcd60e51b815260206004820152601760248201527f43616e6e6f74207472616e7366657220746f2073656c6600000000000000000060448201526064016200008e565b600a80546001600160a01b0319166001600160a01b03838116918217909255600954604051919216907fed8889f560326eb138920d842192f0eb3dd22b4f139c87a2c57538e05bae127890600090a350565b6200033e62000396565b600b80546001600160a01b0383166001600160a01b0319918216811790925560068054909116909117905550565b6200037662000396565b6200038181620005d6565b600c5550565b6200039162000396565b600d55565b6009546001600160a01b03163314620003f25760405162461bcd60e51b815260206004820152601660248201527f4f6e6c792063616c6c61626c65206279206f776e65720000000000000000000060448201526064016200008e565b565b82600981019282156200042c579160200282015b828111156200042c578251829062ffffff1690559160200191906001019062000408565b506200043a92915062000475565b5090565b82600981019282156200042c579160200282015b828111156200042c578251829061ffff1690559160200191906001019062000452565b5b808211156200043a576000815560010162000476565b80516001600160a01b0381168114620004a457600080fd5b919050565b634e487b7160e01b600052604160045260246000fd5b600080600080600060a08688031215620004d857600080fd5b620004e3866200048c565b94506020620004f48188016200048c565b945062000504604088016200048c565b60608801519094506001600160401b03808211156200052257600080fd5b818901915089601f8301126200053757600080fd5b8151818111156200054c576200054c620004a9565b604051601f8201601f19908116603f01168101908382118183101715620005775762000577620004a9565b816040528281528c868487010111156200059057600080fd5b600093505b82841015620005b4578484018601518185018701529285019262000595565b6000868483010152809750505050505050608086015190509295509295909350565b80516020808301519190811015620005f8576000198160200360031b1b821691505b50919050565b611d20806200060e6000396000f3fe60806040526004361061009c5760003560e01c806379ba50971161006457806379ba5097146101725780638da5cb5b14610187578063be52e34f146101a5578063d0bcfc0c146101c5578063e3da201d146101e5578063f2fde38b1461020557600080fd5b80630bae8bfb146100a1578063129fc1c0146100b65780634c69c00f146100d657806356c022bb146100f6578063572b6c0514610133575b600080fd5b6100b46100af3660046116c4565b610225565b005b3480156100c257600080fd5b506100b46100d1366004611773565b610572565b3480156100e257600080fd5b506100b46100f1366004611808565b610589565b34801561010257600080fd5b50600154610116906001600160a01b031681565b6040516001600160a01b0390911681526020015b60405180910390f35b34801561013f57600080fd5b5061016261014e366004611808565b6001546001600160a01b0391821691161490565b604051901515815260200161012a565b34801561017e57600080fd5b506100b46105c1565b34801561019357600080fd5b506009546001600160a01b0316610116565b3480156101b157600080fd5b506100b46101c0366004611823565b61066f565b3480156101d157600080fd5b50600254610116906001600160a01b031681565b3480156101f157600080fd5b506100b46102003660046118d5565b610ae0565b34801561021157600080fd5b506100b4610220366004611808565b610aed565b61022d610afe565b33600860ff87161080610243575060108660ff16115b156102615760405163264097e760e01b815260040160405180910390fd5b60038560ff161061028557604051631bb6feab60e11b815260040160405180910390fd5b6001600160a01b0381166000908152600e6020526040902060030154156102e5576001600160a01b0381166000908152600e60205260409081902060030154905163b271bcdd60e01b815260048101919091526024015b60405180910390fd5b6000841180156102f6575060648411155b61031657604051639310749160e01b8152606460048201526024016102dc565b61032288888888610b28565b61033687610330868b611904565b83610c46565b6000610340610d59565b90506040518061012001604052808a8152602001858152602001848152602001828152602001896001600160a01b031681526020014367ffffffffffffffff1681526020018681526020018760ff1681526020018860ff16815250600e6000846001600160a01b03166001600160a01b031681526020019081526020016000206000820151816000015560208201518160010155604082015181600201556060820151816003015560808201518160040160006101000a8154816001600160a01b0302191690836001600160a01b0316021790555060a08201518160040160146101000a81548167ffffffffffffffff021916908367ffffffffffffffff16021790555060c0820151816005015560e08201518160060160006101000a81548160ff021916908360ff1602179055506101008201518160060160016101000a81548160ff021916908360ff16021790555090505081600f600083815260200190815260200160002060006101000a8154816001600160a01b0302191690836001600160a01b03160217905550816001600160a01b03167ff39d4ccce90e3464e0c7e9d5ef94355ea68835c67567b55b186a4a40e3cc38c08a8a8a8a8a8a8a600d546040516105559897969594939291909788526001600160a01b0396909616602088015260ff9485166040880152929093166060860152608085015260a084019190915260c083015260e08201526101000190565b60405180910390a250506105696001600055565b50505050505050565b61057a610d83565b6105838161191b565b600c5550565b610591610d83565b600b80546001600160a01b03929092166001600160a01b0319928316811790915560068054909216179055565b50565b600a546001600160a01b031633146106145760405162461bcd60e51b815260206004820152601660248201527526bab9ba10313290383937b837b9b2b21037bbb732b960511b60448201526064016102dc565b600980546001600160a01b031980821633908117909355600a805490911690556040516001600160a01b03909116919082907f8be0079c531659141344cd1fd0a4f28419497f9722a3daafe3b4186f6b6457e090600090a350565b60008281526008602052604090205482906001600160a01b031633146106e85760405162461bcd60e51b815260206004820152602860248201527f536f75726365206d75737420626520746865206f7261636c65206f6620746865604482015267081c995c5d595cdd60c21b60648201526084016102dc565b60008181526008602052604080822080546001600160a01b03191690555182917f7cc135e0cebb02c3480ae5d74d377283180a2601f8f644edf7987b009316c63a91a26000838152600f60205260409020546001600160a01b03168061074d57600080fd5b6001600160a01b0381166000908152600e60205260409020600481015461078790600160a01b900467ffffffffffffffff166103e8611942565b67ffffffffffffffff1643111561079d57600080fd5b6000816005015467ffffffffffffffff8111156107bc576107bc61172c565b6040519080825280602002602001820160405280156107e5578160200160208202803683370190505b5090506000826005015467ffffffffffffffff8111156108075761080761172c565b604051908082528060200260200182016040528015610830578160200160208202803683370190505b5060048401549091506000908190819081906001600160a01b03165b87600501548363ffffffff1610156109a45787600101548512156109a45787600201546108789061196a565b8513156109a4576108ba8b8463ffffffff168151811061089a5761089a611986565b602090810291909101015160068a015460ff610100820481169116610dd8565b888563ffffffff16815181106108d2576108d2611986565b602002602001018161ffff1661ffff16815250819350505060648289600001546108fc9190611904565b61090691906119b2565b868463ffffffff168151811061091e5761091e611986565b602002602001018181525050858363ffffffff168151811061094257610942611986565b60200260200101518461095591906119c6565b93508760000154868463ffffffff168151811061097457610974611986565b602002602001015161098691906119d9565b61099090866119f9565b94508261099c81611a21565b93505061084c565b875460058901546109bc9063ffffffff861690611a44565b6109c69190611904565b6109d090856119c6565b885460068a01546040519296506001600160a01b038c16927f8e67907f20e5ba79f864289caa2ebae12b7009e941bc3ad33cd47340fd1b523c92610a2c929091899187918e9160ff61010082048116929116908f908d90611a93565b60405180910390a2610a518189600501548a60000154610a4c9190611904565b610e7d565b60008c8152600f6020908152604080832080546001600160a01b03191690556001600160a01b038c168352600e90915281208181556001810182905560028101829055600381018290556004810180546001600160e01b03191690556005810191909155600601805461ffff191690558315610ad257610ad2898583610f1d565b505050505050505050505050565b610ae8610d83565b600d55565b610af5610d83565b6105be81610f87565b600260005403610b2157604051633ee5aeb560e01b815260040160405180910390fd5b6002600055565b60006001600160a01b038416610b4b57506002546001600160a01b031631610bbc565b6002546040516370a0823160e01b81526001600160a01b039182166004820152908516906370a0823190602401602060405180830381865afa158015610b95573d6000803e3d6000fd5b505050506040513d601f19601f82011682018060405250810190610bb99190611b39565b90505b60006305f5e10060128460ff1660038110610bd957610bd9611986565b60090201610be8600887611b52565b60ff1660098110610bfb57610bfb611986565b0154610c079084611904565b610c1191906119b2565b905080861115610c3e57604051636a9b315560e11b815260048101879052602481018290526044016102dc565b505050505050565b6001600160a01b038316610c955781341015610c7e5760405163de9b74a160e01b8152600481018390523460248201526044016102dc565b610c90610c8b8334611a44565b611031565b505050565b610cc36040518060400160405280600c81526020016b746f6b656e4164647265737360a01b815250846110a5565b610cee6040518060400160405280600981526020016836b9b3a9b2b73232b960b91b815250826110a5565b610d1d6040518060400160405280600d81526020016c6164647265737328746869732960981b815250306110a5565b610d44604051806040016040528060058152602001643bb0b3b2b960d91b815250836110ea565b610c906001600160a01b03841682308561112f565b600080610d6f600c5463be52e34f60e01b61119c565b9050610d7d81600d546111c2565b91505090565b6009546001600160a01b03163314610dd65760405162461bcd60e51b815260206004820152601660248201527527b7363c9031b0b63630b1363290313c9037bbb732b960511b60448201526064016102dc565b565b6000806000805b8560ff168160ff161015610e3257600160ff82161b871615801590610e1b57610e09600184611b6b565b9250600160ff83161b84179350610e29565b610e26600184611b8c565b92505b50600101610ddf565b5060006001610e418784611b6b565b60ff96871660009081526010602090815260408083209a8a16835299815289822092891690931c90971687529052505092909120549391925050565b6001600160a01b038216610eff576002546040516000916001600160a01b03169083908381818185875af1925050503d8060008114610ed8576040519150601f19603f3d011682016040523d82523d6000602084013e610edd565b606091505b5050905080610c9057604051633c31275160e21b815260040160405180910390fd5b600254610f19906001600160a01b038481169116836111e3565b5050565b6002546040516336012f6160e11b81526001600160a01b03858116600483015260248201859052838116604483015290911690636c025ec290606401600060405180830381600087803b158015610f7357600080fd5b505af1158015610569573d6000803e3d6000fd5b336001600160a01b03821603610fdf5760405162461bcd60e51b815260206004820152601760248201527f43616e6e6f74207472616e7366657220746f2073656c6600000000000000000060448201526064016102dc565b600a80546001600160a01b0319166001600160a01b03838116918217909255600954604051919216907fed8889f560326eb138920d842192f0eb3dd22b4f139c87a2c57538e05bae127890600090a350565b8060000361103c5750565b604051600090339083908381818185875af1925050503d806000811461107e576040519150601f19603f3d011682016040523d82523d6000602084013e611083565b606091505b5050905080610f1957604051633c31275160e21b815260040160405180910390fd5b610f1982826040516024016110bb929190611bfd565b60408051601f198184030181529190526020810180516001600160e01b031663319af33360e01b179052611214565b610f198282604051602401611100929190611c27565b60408051601f198184030181529190526020810180516001600160e01b0316632d839cb360e21b179052611214565b6040516001600160a01b0384811660248301528381166044830152606482018390526111969186918216906323b872dd906084015b604051602081830303815290604052915060e01b6020820180516001600160e01b03838183161783525050505061121d565b50505050565b6111a461165c565b6111ac61165c565b6111b881853086611280565b9150505b92915050565b6006546000906111dc906001600160a01b031684846112c6565b9392505050565b6040516001600160a01b03838116602483015260448201839052610c9091859182169063a9059cbb90606401611164565b6105be81611357565b60006112326001600160a01b03841683611378565b905080516000141580156112575750808060200190518101906112559190611c49565b155b15610c9057604051635274afe760e01b81526001600160a01b03841660048201526024016102dc565b61128861165c565b6112988560800151610100611386565b50508284526001600160a01b03821660208501526001600160e01b031981166040850152835b949350505050565b6007546000906112d78160016119c6565b60075583516040808601516080870151519151600093633c6d41b960e01b9361130d938693849392899160029190602401611c6b565b60408051601f198184030181529190526020810180516001600160e01b03166001600160e01b031990931692909217909152905061134d868386846113eb565b9695505050505050565b60006a636f6e736f6c652e6c6f679050600080835160208501845afa505050565b60606111dc83836000611549565b6040805180820190915260608152600060208201526113a6602083611cb3565b156113ce576113b6602083611cb3565b6113c1906020611a44565b6113cb90836119c6565b91505b506020828101829052604080518085526000815290920101905290565b6040516bffffffffffffffffffffffff193060601b1660208201526034810184905260009060540160408051808303601f1901815282825280516020918201206000818152600890925291812080546001600160a01b0319166001600160a01b038a1617905590925082917fb5e6e01e79f91267dc17b4e6314d5d4d03593d2ceee0fbb452b750bd70ea5af99190a2600554604051630200057560e51b81526001600160a01b0390911690634000aea0906114ae90889087908790600401611cc7565b6020604051808303816000875af11580156114cd573d6000803e3d6000fd5b505050506040513d601f19601f820116820180604052508101906114f19190611c49565b6112be5760405162461bcd60e51b815260206004820152602360248201527f756e61626c6520746f207472616e73666572416e6443616c6c20746f206f7261604482015262636c6560e81b60648201526084016102dc565b60608147101561156e5760405163cd78605960e01b81523060048201526024016102dc565b600080856001600160a01b0316848660405161158a9190611cf7565b60006040518083038185875af1925050503d80600081146115c7576040519150601f19603f3d011682016040523d82523d6000602084013e6115cc565b606091505b509150915061134d8683836060826115ec576115e782611633565b6111dc565b815115801561160357506001600160a01b0384163b155b1561162c57604051639996b31560e01b81526001600160a01b03851660048201526024016102dc565b50806111dc565b8051156116435780518082602001fd5b604051630a12f52160e11b815260040160405180910390fd5b6040805160a0810182526000808252602080830182905282840182905260608084018390528451808601909552845283015290608082015290565b80356001600160a01b03811681146116ae57600080fd5b919050565b803560ff811681146116ae57600080fd5b600080600080600080600060e0888a0312156116df57600080fd5b873596506116ef60208901611697565b95506116fd604089016116b3565b945061170b606089016116b3565b9699959850939660808101359560a0820135955060c0909101359350915050565b634e487b7160e01b600052604160045260246000fd5b604051601f8201601f1916810167ffffffffffffffff8111828210171561176b5761176b61172c565b604052919050565b6000602080838503121561178657600080fd5b823567ffffffffffffffff8082111561179e57600080fd5b818501915085601f8301126117b257600080fd5b8135818111156117c4576117c461172c565b6117d6601f8201601f19168501611742565b915080825286848285010111156117ec57600080fd5b8084840185840137600090820190930192909252509392505050565b60006020828403121561181a57600080fd5b6111dc82611697565b6000806040838503121561183657600080fd5b8235915060208084013567ffffffffffffffff8082111561185657600080fd5b818601915086601f83011261186a57600080fd5b81358181111561187c5761187c61172c565b8060051b915061188d848301611742565b81815291830184019184810190898411156118a757600080fd5b938501935b838510156118c5578435825293850193908501906118ac565b8096505050505050509250929050565b6000602082840312156118e757600080fd5b5035919050565b634e487b7160e01b600052601160045260246000fd5b80820281158282048414176111bc576111bc6118ee565b8051602080830151919081101561193c576000198160200360031b1b821691505b50919050565b67ffffffffffffffff818116838216019080821115611963576119636118ee565b5092915050565b6000600160ff1b820161197f5761197f6118ee565b5060000390565b634e487b7160e01b600052603260045260246000fd5b634e487b7160e01b600052601260045260246000fd5b6000826119c1576119c161199c565b500490565b808201808211156111bc576111bc6118ee565b8181036000831280158383131683831282161715611963576119636118ee565b8082018281126000831280158216821582161715611a1957611a196118ee565b505092915050565b600063ffffffff808316818103611a3a57611a3a6118ee565b6001019392505050565b818103818111156111bc576111bc6118ee565b60008151808452602080850194506020840160005b83811015611a8857815187529582019590820190600101611a6c565b509495945050505050565b88815260208082018990526001600160a01b03881660408301526101006060830181905287519083018190526000916101208401918982019190845b81811015611aef57835161ffff1685529382019392820192600101611acf565b50505060ff881660808501525060ff861660a084015282810360c0840152611b178186611a57565b915050611b2c60e083018463ffffffff169052565b9998505050505050505050565b600060208284031215611b4b57600080fd5b5051919050565b60ff82811682821603908111156111bc576111bc6118ee565b600081810b9083900b01607f8113607f19821217156111bc576111bc6118ee565b600082810b9082900b03607f198112607f821317156111bc576111bc6118ee565b60005b83811015611bc8578181015183820152602001611bb0565b50506000910152565b60008151808452611be9816020860160208601611bad565b601f01601f19169290920160200192915050565b604081526000611c106040830185611bd1565b905060018060a01b03831660208301529392505050565b604081526000611c3a6040830185611bd1565b90508260208301529392505050565b600060208284031215611c5b57600080fd5b815180151581146111dc57600080fd5b60018060a01b038816815286602082015285604082015263ffffffff60e01b851660608201528360808201528260a082015260e060c08201526000611b2c60e0830184611bd1565b600082611cc257611cc261199c565b500690565b60018060a01b0384168152826020820152606060408201526000611cee6060830184611bd1565b95945050505050565b60008251611d09818460208701611bad565b919091019291505056fea164736f6c6343000817000a",
  "devdoc": {
    "errors": {
      "AddressEmptyCode(address)": [
        {
          "details": "There's no code at `target` (it is not a contract)."
        }
      ],
      "AddressInsufficientBalance(address)": [
        {
          "details": "The ETH balance of the account is not enough to perform the operation."
        }
      ],
      "FailedInnerCall()": [
        {
          "details": "A call to an address target failed. The target may have reverted."
        }
      ],
      "ReentrancyGuardReentrantCall()": [
        {
          "details": "Unauthorized reentrant call."
        }
      ],
      "SafeERC20FailedOperation(address)": [
        {
          "details": "An operation with an ERC20 token failed."
        }
      ]
    },
    "kind": "dev",
    "methods": {},
    "title": "plinko game, players select a number of rows and risk and get payouts depending on the final position of the ball",
    "version": 1
  },
  "userdoc": {
    "kind": "user",
    "methods": {
      "acceptOwnership()": {
        "notice": "Allows an ownership transfer to be completed by the recipient."
      },
      "owner()": {
        "notice": "Get the current owner"
      },
      "transferOwnership(address)": {
        "notice": "Allows an owner to begin transferring ownership to a new address, pending."
      }
    },
    "version": 1
  },
  "storageLayout": {
    "storage": [
      {
        "astId": 3184,
        "contract": "contracts/Plinko.sol:Plinko",
        "label": "_status",
        "offset": 0,
        "slot": "0",
        "type": "t_uint256"
      },
      {
        "astId": 3269,
        "contract": "contracts/Plinko.sol:Plinko",
        "label": "_trustedForwarder",
        "offset": 0,
        "slot": "1",
        "type": "t_address"
      },
      {
        "astId": 3272,
        "contract": "contracts/Plinko.sol:Plinko",
        "label": "Bankroll",
        "offset": 0,
        "slot": "2",
        "type": "t_contract(IBankRoll)3261"
      },
      {
        "astId": 319,
        "contract": "contracts/Plinko.sol:Plinko",
        "label": "s_ens",
        "offset": 0,
        "slot": "3",
        "type": "t_contract(ENSInterface)1020"
      },
      {
        "astId": 321,
        "contract": "contracts/Plinko.sol:Plinko",
        "label": "s_ensNode",
        "offset": 0,
        "slot": "4",
        "type": "t_bytes32"
      },
      {
        "astId": 324,
        "contract": "contracts/Plinko.sol:Plinko",
        "label": "s_link",
        "offset": 0,
        "slot": "5",
        "type": "t_contract(LinkTokenInterface)1536"
      },
      {
        "astId": 327,
        "contract": "contracts/Plinko.sol:Plinko",
        "label": "s_oracle",
        "offset": 0,
        "slot": "6",
        "type": "t_contract(OperatorInterface)1100"
      },
      {
        "astId": 330,
        "contract": "contracts/Plinko.sol:Plinko",
        "label": "s_requestCount",
        "offset": 0,
        "slot": "7",
        "type": "t_uint256"
      },
      {
        "astId": 334,
        "contract": "contracts/Plinko.sol:Plinko",
        "label": "s_pendingRequests",
        "offset": 0,
        "slot": "8",
        "type": "t_mapping(t_bytes32,t_address)"
      },
      {
        "astId": 1271,
        "contract": "contracts/Plinko.sol:Plinko",
        "label": "s_owner",
        "offset": 0,
        "slot": "9",
        "type": "t_address"
      },
      {
        "astId": 1273,
        "contract": "contracts/Plinko.sol:Plinko",
        "label": "s_pendingOwner",
        "offset": 0,
        "slot": "10",
        "type": "t_address"
      },
      {
        "astId": 12545,
        "contract": "contracts/Plinko.sol:Plinko",
        "label": "oracleAddress",
        "offset": 0,
        "slot": "11",
        "type": "t_address"
      },
      {
        "astId": 12547,
        "contract": "contracts/Plinko.sol:Plinko",
        "label": "jobId",
        "offset": 0,
        "slot": "12",
        "type": "t_bytes32"
      },
      {
        "astId": 12549,
        "contract": "contracts/Plinko.sol:Plinko",
        "label": "fee",
        "offset": 0,
        "slot": "13",
        "type": "t_uint256"
      },
      {
        "astId": 12664,
        "contract": "contracts/Plinko.sol:Plinko",
        "label": "plinkoGames",
        "offset": 0,
        "slot": "14",
        "type": "t_mapping(t_address,t_struct(PlinkoGame)12659_storage)"
      },
      {
        "astId": 12668,
        "contract": "contracts/Plinko.sol:Plinko",
        "label": "plinkoIDs",
        "offset": 0,
        "slot": "15",
        "type": "t_mapping(t_bytes32,t_address)"
      },
      {
        "astId": 12676,
        "contract": "contracts/Plinko.sol:Plinko",
        "label": "plinkoMultipliers",
        "offset": 0,
        "slot": "16",
        "type": "t_mapping(t_uint8,t_mapping(t_uint8,t_mapping(t_uint8,t_uint256)))"
      },
      {
        "astId": 12682,
        "contract": "contracts/Plinko.sol:Plinko",
        "label": "isMultiplierSet",
        "offset": 0,
        "slot": "17",
        "type": "t_mapping(t_uint8,t_mapping(t_uint8,t_bool))"
      },
      {
        "astId": 12688,
        "contract": "contracts/Plinko.sol:Plinko",
        "label": "kellyFractions",
        "offset": 0,
        "slot": "18",
        "type": "t_array(t_array(t_uint256)9_storage)3_storage"
      }
    ],
    "types": {
      "t_address": {
        "encoding": "inplace",
        "label": "address",
        "numberOfBytes": "20"
      },
      "t_array(t_array(t_uint256)9_storage)3_storage": {
        "base": "t_array(t_uint256)9_storage",
        "encoding": "inplace",
        "label": "uint256[9][3]",
        "numberOfBytes": "864"
      },
      "t_array(t_uint256)9_storage": {
        "base": "t_uint256",
        "encoding": "inplace",
        "label": "uint256[9]",
        "numberOfBytes": "288"
      },
      "t_bool": {
        "encoding": "inplace",
        "label": "bool",
        "numberOfBytes": "1"
      },
      "t_bytes32": {
        "encoding": "inplace",
        "label": "bytes32",
        "numberOfBytes": "32"
      },
      "t_contract(ENSInterface)1020": {
        "encoding": "inplace",
        "label": "contract ENSInterface",
        "numberOfBytes": "20"
      },
      "t_contract(IBankRoll)3261": {
        "encoding": "inplace",
        "label": "contract IBankRoll",
        "numberOfBytes": "20"
      },
      "t_contract(LinkTokenInterface)1536": {
        "encoding": "inplace",
        "label": "contract LinkTokenInterface",
        "numberOfBytes": "20"
      },
      "t_contract(OperatorInterface)1100": {
        "encoding": "inplace",
        "label": "contract OperatorInterface",
        "numberOfBytes": "20"
      },
      "t_mapping(t_address,t_struct(PlinkoGame)12659_storage)": {
        "encoding": "mapping",
        "key": "t_address",
        "label": "mapping(address => struct Plinko.PlinkoGame)",
        "numberOfBytes": "32",
        "value": "t_struct(PlinkoGame)12659_storage"
      },
      "t_mapping(t_bytes32,t_address)": {
        "encoding": "mapping",
        "key": "t_bytes32",
        "label": "mapping(bytes32 => address)",
        "numberOfBytes": "32",
        "value": "t_address"
      },
      "t_mapping(t_uint8,t_bool)": {
        "encoding": "mapping",
        "key": "t_uint8",
        "label": "mapping(uint8 => bool)",
        "numberOfBytes": "32",
        "value": "t_bool"
      },
      "t_mapping(t_uint8,t_mapping(t_uint8,t_bool))": {
        "encoding": "mapping",
        "key": "t_uint8",
        "label": "mapping(uint8 => mapping(uint8 => bool))",
        "numberOfBytes": "32",
        "value": "t_mapping(t_uint8,t_bool)"
      },
      "t_mapping(t_uint8,t_mapping(t_uint8,t_mapping(t_uint8,t_uint256)))": {
        "encoding": "mapping",
        "key": "t_uint8",
        "label": "mapping(uint8 => mapping(uint8 => mapping(uint8 => uint256)))",
        "numberOfBytes": "32",
        "value": "t_mapping(t_uint8,t_mapping(t_uint8,t_uint256))"
      },
      "t_mapping(t_uint8,t_mapping(t_uint8,t_uint256))": {
        "encoding": "mapping",
        "key": "t_uint8",
        "label": "mapping(uint8 => mapping(uint8 => uint256))",
        "numberOfBytes": "32",
        "value": "t_mapping(t_uint8,t_uint256)"
      },
      "t_mapping(t_uint8,t_uint256)": {
        "encoding": "mapping",
        "key": "t_uint8",
        "label": "mapping(uint8 => uint256)",
        "numberOfBytes": "32",
        "value": "t_uint256"
      },
      "t_struct(PlinkoGame)12659_storage": {
        "encoding": "inplace",
        "label": "struct Plinko.PlinkoGame",
        "members": [
          {
            "astId": 12642,
            "contract": "contracts/Plinko.sol:Plinko",
            "label": "wager",
            "offset": 0,
            "slot": "0",
            "type": "t_uint256"
          },
          {
            "astId": 12644,
            "contract": "contracts/Plinko.sol:Plinko",
            "label": "stopGain",
            "offset": 0,
            "slot": "1",
            "type": "t_uint256"
          },
          {
            "astId": 12646,
            "contract": "contracts/Plinko.sol:Plinko",
            "label": "stopLoss",
            "offset": 0,
            "slot": "2",
            "type": "t_uint256"
          },
          {
            "astId": 12648,
            "contract": "contracts/Plinko.sol:Plinko",
            "label": "requestID",
            "offset": 0,
            "slot": "3",
            "type": "t_bytes32"
          },
          {
            "astId": 12650,
            "contract": "contracts/Plinko.sol:Plinko",
            "label": "tokenAddress",
            "offset": 0,
            "slot": "4",
            "type": "t_address"
          },
          {
            "astId": 12652,
            "contract": "contracts/Plinko.sol:Plinko",
            "label": "blockNumber",
            "offset": 20,
            "slot": "4",
            "type": "t_uint64"
          },
          {
            "astId": 12654,
            "contract": "contracts/Plinko.sol:Plinko",
            "label": "numBets",
            "offset": 0,
            "slot": "5",
            "type": "t_uint256"
          },
          {
            "astId": 12656,
            "contract": "contracts/Plinko.sol:Plinko",
            "label": "risk",
            "offset": 0,
            "slot": "6",
            "type": "t_uint8"
          },
          {
            "astId": 12658,
            "contract": "contracts/Plinko.sol:Plinko",
            "label": "numRows",
            "offset": 1,
            "slot": "6",
            "type": "t_uint8"
          }
        ],
        "numberOfBytes": "224"
      },
      "t_uint256": {
        "encoding": "inplace",
        "label": "uint256",
        "numberOfBytes": "32"
      },
      "t_uint64": {
        "encoding": "inplace",
        "label": "uint64",
        "numberOfBytes": "8"
      },
      "t_uint8": {
        "encoding": "inplace",
        "label": "uint8",
        "numberOfBytes": "1"
      }
    }
  }
}